{
  "contractName": "Ballot",
  "abi": [
    {
      "inputs": [
        {
          "components": [
            {
              "internalType": "string",
              "name": "name",
              "type": "string"
            },
            {
              "internalType": "string",
              "name": "partyShortcut",
              "type": "string"
            },
            {
              "internalType": "string",
              "name": "partyFlag",
              "type": "string"
            },
            {
              "internalType": "uint256",
              "name": "voteCount",
              "type": "uint256"
            },
            {
              "internalType": "uint256",
              "name": "aadharNumber",
              "type": "uint256"
            },
            {
              "internalType": "uint8",
              "name": "stateCode",
              "type": "uint8"
            },
            {
              "internalType": "uint8",
              "name": "constituencyCode",
              "type": "uint8"
            }
          ],
          "internalType": "struct Ballot.Candidate[]",
          "name": "candidates_",
          "type": "tuple[]"
        },
        {
          "internalType": "uint256",
          "name": "startTime_",
          "type": "uint256"
        },
        {
          "internalType": "uint256",
          "name": "endTime_",
          "type": "uint256"
        }
      ],
      "stateMutability": "nonpayable",
      "type": "constructor"
    },
    {
      "inputs": [
        {
          "internalType": "uint256",
          "name": "voterAadharNumber",
          "type": "uint256"
        }
      ],
      "name": "getCandidateList",
      "outputs": [
        {
          "components": [
            {
              "internalType": "string",
              "name": "name",
              "type": "string"
            },
            {
              "internalType": "string",
              "name": "partyShortcut",
              "type": "string"
            },
            {
              "internalType": "string",
              "name": "partyFlag",
              "type": "string"
            },
            {
              "internalType": "uint256",
              "name": "voteCount",
              "type": "uint256"
            },
            {
              "internalType": "uint256",
              "name": "aadharNumber",
              "type": "uint256"
            },
            {
              "internalType": "uint8",
              "name": "stateCode",
              "type": "uint8"
            },
            {
              "internalType": "uint8",
              "name": "constituencyCode",
              "type": "uint8"
            }
          ],
          "internalType": "struct Ballot.Candidate[]",
          "name": "",
          "type": "tuple[]"
        }
      ],
      "stateMutability": "view",
      "type": "function"
    },
    {
      "inputs": [
        {
          "internalType": "uint256",
          "name": "voterAadharNumber",
          "type": "uint256"
        }
      ],
      "name": "isVoterEligible",
      "outputs": [
        {
          "internalType": "bool",
          "name": "voterEligible_",
          "type": "bool"
        }
      ],
      "stateMutability": "view",
      "type": "function"
    },
    {
      "inputs": [
        {
          "internalType": "uint256",
          "name": "voterAadharNumber",
          "type": "uint256"
        }
      ],
      "name": "didCurrentVoterVoted",
      "outputs": [
        {
          "internalType": "bool",
          "name": "userVoted_",
          "type": "bool"
        },
        {
          "components": [
            {
              "internalType": "string",
              "name": "name",
              "type": "string"
            },
            {
              "internalType": "string",
              "name": "partyShortcut",
              "type": "string"
            },
            {
              "internalType": "string",
              "name": "partyFlag",
              "type": "string"
            },
            {
              "internalType": "uint256",
              "name": "voteCount",
              "type": "uint256"
            },
            {
              "internalType": "uint256",
              "name": "aadharNumber",
              "type": "uint256"
            },
            {
              "internalType": "uint8",
              "name": "stateCode",
              "type": "uint8"
            },
            {
              "internalType": "uint8",
              "name": "constituencyCode",
              "type": "uint8"
            }
          ],
          "internalType": "struct Ballot.Candidate",
          "name": "candidate_",
          "type": "tuple"
        }
      ],
      "stateMutability": "view",
      "type": "function"
    },
    {
      "inputs": [
        {
          "internalType": "uint256",
          "name": "candidateAadharNumber",
          "type": "uint256"
        },
        {
          "internalType": "uint256",
          "name": "voterAadharNumber",
          "type": "uint256"
        },
        {
          "internalType": "uint256",
          "name": "currentTime_",
          "type": "uint256"
        }
      ],
      "name": "vote",
      "outputs": [],
      "stateMutability": "nonpayable",
      "type": "function"
    },
    {
      "inputs": [],
      "name": "getVotingEndTime",
      "outputs": [
        {
          "internalType": "uint256",
          "name": "endTime_",
          "type": "uint256"
        }
      ],
      "stateMutability": "view",
      "type": "function"
    },
    {
      "inputs": [
        {
          "internalType": "uint256",
          "name": "startTime_",
          "type": "uint256"
        },
        {
          "internalType": "uint256",
          "name": "currentTime_",
          "type": "uint256"
        }
      ],
      "name": "updateVotingStartTime",
      "outputs": [],
      "stateMutability": "nonpayable",
      "type": "function"
    },
    {
      "inputs": [
        {
          "internalType": "uint256",
          "name": "endTime_",
          "type": "uint256"
        },
        {
          "internalType": "uint256",
          "name": "currentTime_",
          "type": "uint256"
        }
      ],
      "name": "extendVotingTime",
      "outputs": [],
      "stateMutability": "nonpayable",
      "type": "function"
    },
    {
      "inputs": [
        {
          "internalType": "uint256",
          "name": "currentTime_",
          "type": "uint256"
        }
      ],
      "name": "getResults",
      "outputs": [
        {
          "components": [
            {
              "internalType": "string",
              "name": "name",
              "type": "string"
            },
            {
              "internalType": "string",
              "name": "partyShortcut",
              "type": "string"
            },
            {
              "internalType": "string",
              "name": "partyFlag",
              "type": "string"
            },
            {
              "internalType": "uint256",
              "name": "voteCount",
              "type": "uint256"
            },
            {
              "internalType": "uint256",
              "name": "aadharNumber",
              "type": "uint256"
            },
            {
              "internalType": "uint8",
              "name": "stateCode",
              "type": "uint8"
            },
            {
              "internalType": "uint8",
              "name": "constituencyCode",
              "type": "uint8"
            }
          ],
          "internalType": "struct Ballot.Candidate[]",
          "name": "",
          "type": "tuple[]"
        }
      ],
      "stateMutability": "view",
      "type": "function"
    }
  ],
  "bytecode": "0x60806040523480156200001157600080fd5b5060405162002e5a38038062002e5a833981016040819052620000349162001c63565b6200003e6200023c565b60038290556004819055600580546001600160a01b0319163317905560005b8351811015620002325760008482815181106200007e576200007e62001e0a565b602002602001015190508060026000878581518110620000a257620000a262001e0a565b60200260200101516080015181526020019081526020016000206000820151816000019080519060200190620000da92919062001a9d565b506020828101518051620000f5926001850192019062001a9d565b50604082015180516200011391600284019160209091019062001a9d565b50606082015160038201556080820151600482015560a08201516005909101805460c09093015160ff9081166101000261ffff19909416921691909117919091179055600080546001810182559080528151805183926006027f290decd9548b62a8d60345a988386fc84ba6bc95484008f6362f93160ef3e5630191620001a09183916020019062001a9d565b506020828101518051620001bb926001850192019062001a9d565b5060408201518051620001d991600284019160209091019062001a9d565b50606082015160038201556080820151600482015560a08201516005909101805460c09093015160ff9081166101000261ffff199094169216919091179190911790555080620002298162001e20565b9150506200005d565b5050505062001e84565b604080516101008101825264704892d0248082528251808401845260068152650a6eae4cae6d60d31b602082810191909152808401918252601594840194909452600a606084015260016080840181905260a08401819052600060c0850181905260e085018190529290925290835281517fa7a766775a1cc834fc59ee5e38e7a27c550be59c7dbd2dc8ec140f4b1f466779908155905180519293919262000308927fa7a766775a1cc834fc59ee5e38e7a27c550be59c7dbd2dc8ec140f4b1f46677a92019062001a9d565b5060408281015160028301805460608087015160808089015160a0808b015160c0808d015160ff9a8b1661ffff1990991698909817610100968b1687021763ffff00001916620100009a9094169990990263ff0000001916929092176301000000921515929092029190911760ff60201b1916640100000000951515959095029490941790945560e09788015160039097019690965584519586018552647be4f5771b8087528551808701875260068152650a4c2dacae6d60d31b602082810191909152808901918252602597890197909752600a928801929092526001938701849052600092870183905293860182905295850181905291909152815281517f232cd2334dd65769e71e2aa2c195cf980876a8eb6ecf2048ca949faf6674a2e19081559251805192939262000462927f232cd2334dd65769e71e2aa2c195cf980876a8eb6ecf2048ca949faf6674a2e292019062001a9d565b5060408281015160028301805460608087015160808089015160a0808b015160c0808d015160ff9a8b1661ffff1990991698909817610100968b1687021763ffff00001916620100009a9094169990990263ff0000001916929092176301000000921515929092029190911760ff60201b1916640100000000951515959095029490941790945560e09788015160039097019690965584519586018552646cfae753fe80875285518087018752600681526509ac2d0cae6d60d31b602082810191909152808901918252601a97890197909752600a9288019290925260019387018490529186018390526000938601849052958501839052909152815281517f1b3a7021b910de42e48c53ef9e4dd9d06e206d1a40f603d5f2b202a2e3c6ee6090815592518051929392620005bb927f1b3a7021b910de42e48c53ef9e4dd9d06e206d1a40f603d5f2b202a2e3c6ee6192019062001a9d565b50604082810151600280840180546060808801516080808a015160a0808c015160c0808e015115156401000000000260ff60201b1992151563010000000263ff0000001960ff96871662010000021663ffff00001998871661010090810261ffff19909c1697909e169690961799909917969096169390931796909617959095169290921790945560e0988901516003909801979097558551948501865264bc95724c2d8086528651808801885260078152664b726973686e6160c81b602082810191909152808801918252601398880198909852600a92870192909252928501939093526001908401819052600095840186905295830185905290935292815282517f1757a57a3665fdfdc357993048df2993db9c64b80e0fbfcbca368d33c1c71cae9081559151805162000715927f1757a57a3665fdfdc357993048df2993db9c64b80e0fbfcbca368d33c1c71caf92019062001a9d565b50604082810151600280840180546060808801516080808a015160a0808c015160c0808e015115156401000000000260ff60201b1992151563010000000263ff0000001960ff96871662010000021663ffff00001998871661010090810261ffff19909c1697909e169690961799909917969096169390931796909617959095169290921790945560e0988901516003909801979097558551948501865264d38e2fd0d68086528651808801885260088152674e6172656e64726160c01b602082810191909152808801918252602498880198909852600a92870192909252928501939093526001908401819052600095840186905295830185905290935292815282517f35388ea09f12e739d60ed1f05e898eb6777f2cbfb0a7050c9dde6e36f23161279081559151805162000870927f35388ea09f12e739d60ed1f05e898eb6777f2cbfb0a7050c9dde6e36f231612892019062001a9d565b50604082810151600280840180546060808801516080808a015160a0808c015160c0808e015115156401000000000260ff60201b1992151563010000000263ff0000001960ff96871662010000021663ffff00001998871661010090810261ffff19909c1697909e169690961799909917969096169390931796909617959095169290921790945560e0988901516003909801979097558551948501865264b1081230bf808652865180880188526005815264526167687560d81b602082810191909152808801918252602a98880198909852600a92870192909252928501939093526001908401819052600095840186905295830185905290935292815282517f443e070219c8cb3c0f3ee528dd5680b5cf16ddda358bf5d2d95a895459fcd23290815591518051620009c8927f443e070219c8cb3c0f3ee528dd5680b5cf16ddda358bf5d2d95a895459fcd23392019062001a9d565b5060408281015160028301805460608087015160808089015160a0808b015160c0808d015160ff9a8b1661ffff1990991698909817610100968b1687021763ffff00001916620100009a9094169990990263ff0000001916929092176301000000921515929092029190911760ff60201b1916640100000000951515959095029490941790945560e0978801516003909701969096558451958601855264d392fd0ce680875285518087018752600d81526c283ab9b435b0b91025bab6b0b960991b602082810191909152808901918252601997890197909752600b9288019290925260019387018490529186018390526000938601849052958501839052909152815281517fe37e3282cf946d42746d01da27e04c4fe48ad3543cee63ab42de9b0f273c984e9081559251805192939262000b28927fe37e3282cf946d42746d01da27e04c4fe48ad3543cee63ab42de9b0f273c984f92019062001a9d565b5060408281015160028301805460608087015160808089015160a0808b015160c0808d015160ff9a8b1661ffff1990991698909817610100968b1687021763ffff00001916620100009a9094169990990263ff0000001916929092176301000000921515929092029190911760ff60201b1916640100000000951515959095029490941790945560e0978801516003909701969096558451958601855264b55b93624480875285518087018752600b8082526a25bab730b61025bab6b0b960a91b602083810191909152808a019283526025988a01989098529288019290925260019387018490529186018390526000938601849052958501839052909152815281517f30d4b24505605762448e86fccc156aa1978eeea8d82899cffd4384c78b10c3ff9081559251805192939262000c85927f30d4b24505605762448e86fccc156aa1978eeea8d82899cffd4384c78b10c40092019062001a9d565b50604082810151600280840180546060808801516080808a015160a0808c015160c0808e015115156401000000000260ff60201b1992151563010000000263ff0000001960ff96871662010000021663ffff00001998871661010090810261ffff19909c1697909e169690961799909917969096169390931796909617959095169290921790945560e09889015160039098019790975585519485018652645b84e787e780865286518088018852600c81526b12dd5b585c8814d85b9ad95d60a21b602082810191909152808801918252601d98880198909852600b92870192909252928501939093526001908401819052600095840186905295830185905290935292815282517f25960912c3b6edab299da1dc45160cd1fd55e1029d7207fb8128077bd9e85b9c9081559151805162000de4927f25960912c3b6edab299da1dc45160cd1fd55e1029d7207fb8128077bd9e85b9d92019062001a9d565b50604082810151600280840180546060808801516080808a015160a0808c015160c0808e015115156401000000000260ff60201b1992151563010000000263ff0000001960ff96871662010000021663ffff00001998871661010090810261ffff19909c1697909e169690961799909917969096169390931796909617959095169290921790945560e0988901516003909801979097558551948501865264e513eca33180865286518088018852600681526550726174696b60d01b602082810191909152808801918252602898880198909852600b92870192909252928501939093526001908401819052600095840186905295830185905290935292815282517fb1d20da8c8c00c29f5e8df9faf66df82b30b02c992dfb100605535988c968e4f9081559151805162000f3d927fb1d20da8c8c00c29f5e8df9faf66df82b30b02c992dfb100605535988c968e5092019062001a9d565b5060408281015160028301805460608087015160808089015160a0808b015160c0808d015160ff9a8b1661ffff1990991698909817610100968b1687021763ffff00001916620100009a9094169990990263ff0000001916929092176301000000921515929092029190911760ff60201b1916640100000000951515959095029490941790945560e0978801516003909701969096558451958601855264b02a4c06cd808752855180870187526005815264416175736960d81b602082810191909152808901918252605597890197909752600b928801929092526001938701849052600092870183905293860182905295850181905291909152815281517f804168a7ad743abc9352750a537b700b3c0b600d928c4765fb15c795ffe6ee559081559251805192939262001096927f804168a7ad743abc9352750a537b700b3c0b600d928c4765fb15c795ffe6ee5692019062001a9d565b50604082810151600283810180546060808801516080808a015160a0808c015160c0808e015160ff9b8c1661ffff1990991698909817610100968c1687021763ffff00001916620100009b9094169a909a0263ff0000001916929092176301000000921515929092029190911760ff60201b1916640100000000951515959095029490941790945560e098890151600390980197909755855196870186526488ee0e30318088528651808801885260078152665072617469626160c81b602082810191909152808a019182526044988a0198909852600b928901929092529287019390935260009086018190529285018390529484018290529390526001815281517f4a3fb811d4b113ee2ca65a56f87b884561696a1fc7edd3fe98eaf05f0e04f47690815592518051929392620011f2927f4a3fb811d4b113ee2ca65a56f87b884561696a1fc7edd3fe98eaf05f0e04f47792019062001a9d565b5060408281015160028301805460608087015160808089015160a0808b015160c0808d015160ff9a8b1661ffff1990991698909817610100968b1687021763ffff00001916620100009a9094169990990263ff0000001916929092176301000000921515929092029190911760ff60201b1916640100000000951515959095029490941790945560e0978801516003909701969096558451958601855264e1522cf91580875285518087018752600781526652756368696b6160c81b602082810191909152808901918252601a97890197909752600b9288019290925260019387018490529186018390526000938601849052958501839052909152815281517f57026994d2ae0eca866a75a551989963e7d4d94050f79a43e945ffe7af06ef2c908155925180519293926200134c927f57026994d2ae0eca866a75a551989963e7d4d94050f79a43e945ffe7af06ef2d92019062001a9d565b5060408281015160028301805460608087015160808089015160a0808b015160c0808d015160ff9a8b1661ffff1990991698909817610100968b1687021763ffff00001916620100009a9094169990990263ff0000001916929092176301000000921515929092029190911760ff60201b1916640100000000951515959095029490941790945560e0978801516003909701969096558451958601855264a97c7f00ef80875285518087018752600781526652616d6261627560c81b602082810191909152808901918252601197890197909752600b9288019290925260019387018490529186018390526000938601849052958501839052909152815281517f4d21fa55ebfb6c114e74444f0f357971a8f79e2c19860f008d6086744123968890815592518051929392620014a6927f4d21fa55ebfb6c114e74444f0f357971a8f79e2c19860f008d6086744123968992019062001a9d565b5060408281015160028301805460608087015160808089015160a0808b015160c0808d015160ff9a8b1661ffff1990991698909817610100968b1687021763ffff00001916620100009a9094169990990263ff0000001916929092176301000000921515929092029190911760ff60201b1916640100000000951515959095029490941790945560e09788015160039097019690965584519586018552648dcc2d6c788087528551808701875260078152664d6174616a696960c81b602082810191909152808901918252606297890197909752600b9288019290925260019387018490529186018390526000938601849052958501839052909152815281517f175640b7317f48c1fe13b4943aa8db51ed910f24b59c7c7a87df1162869c41299081559251805192939262001600927f175640b7317f48c1fe13b4943aa8db51ed910f24b59c7c7a87df1162869c412a92019062001a9d565b50604082810151600283810180546060808801516080808a015160a0808c015160c0808e015160ff9b8c1661ffff1990991698909817610100968c1687021763ffff00001916620100009b9094169a909a0263ff0000001916929092176301000000921515929092029190911760ff60201b1916640100000000951515959095029490941790945560e098890151600390980197909755855196870186526490614c757c8088528651808801885260068152654d616d61746160d01b602082810191909152808a01918252603f988a0198909852600b928901929092529287019390935260009086018190529285018390529484018290529390526001815281517f02c514276c4433674743470a9edf69caf9576393cb4e3e4e47d815521a37e1af908155925180519293926200175b927f02c514276c4433674743470a9edf69caf9576393cb4e3e4e47d815521a37e1b092019062001a9d565b50604082810151600280840180546060808801516080808a015160a0808c015160c0808e015115156401000000000260ff60201b1992151563010000000263ff0000001960ff96871662010000021663ffff00001998871661010090810261ffff19909c1697909e169690961799909917969096169390931796909617959095169290921790945560e09889015160039098019790975585519485018652645df6210bd180865286518088018852600a81526952617669205661726d6160b01b602082810191909152808801918252602a98880198909852600b92870192909252928501939093526001908401819052600095840186905295830185905290935292815282517f02ea4325dbef716443262e28d8675f811ec12200c84f4bf58633d94510ce66d290815591518051620018b8927f02ea4325dbef716443262e28d8675f811ec12200c84f4bf58633d94510ce66d392019062001a9d565b50604082810151600280840180546060808801516080808a015160a0808c015160c0808e015115156401000000000260ff60201b1992151563010000000263ff0000001960ff96871662010000021663ffff00001998871661010090810261ffff19909c1697909e169690961799909917969096169390931796909617959095169290921790945560e0988901516003909801979097558551948501865264c31aeaf9aa80865286518088018852600581526414985a1d5b60da1b602082810191909152808801918252603898880198909852600b92870192909252928501939093526001908401819052600095840186905295830185905290935292815282517f51a0e312c4d04dc1a459128c3f53e3f3cd897635741f156d17548f323209fd389081559151805162001a10927f51a0e312c4d04dc1a459128c3f53e3f3cd897635741f156d17548f323209fd3992019062001a9d565b5060408201516002820180546060850151608086015160a087015160c088015115156401000000000260ff60201b1991151563010000000263ff0000001960ff94851662010000021663ffff0000199585166101000261ffff199097169490981693909317949094179290921694909417939093179290921691909117905560e090910151600390910155565b82805462001aab9062001e48565b90600052602060002090601f01602090048101928262001acf576000855562001b1a565b82601f1062001aea57805160ff191683800117855562001b1a565b8280016001018555821562001b1a579182015b8281111562001b1a57825182559160200191906001019062001afd565b5062001b2892915062001b2c565b5090565b5b8082111562001b28576000815560010162001b2d565b634e487b7160e01b600052604160045260246000fd5b60405160e081016001600160401b038111828210171562001b7e5762001b7e62001b43565b60405290565b604051601f8201601f191681016001600160401b038111828210171562001baf5762001baf62001b43565b604052919050565b600082601f83011262001bc957600080fd5b81516001600160401b0381111562001be55762001be562001b43565b602062001bfb601f8301601f1916820162001b84565b828152858284870101111562001c1057600080fd5b60005b8381101562001c3057858101830151828201840152820162001c13565b8381111562001c425760008385840101525b5095945050505050565b805160ff8116811462001c5e57600080fd5b919050565b60008060006060848603121562001c7957600080fd5b83516001600160401b038082111562001c9157600080fd5b818601915086601f83011262001ca657600080fd5b815160208282111562001cbd5762001cbd62001b43565b8160051b62001cce82820162001b84565b928352848101820192828101908b85111562001ce957600080fd5b83870192505b8483101562001dee5782518681111562001d0857600080fd5b870160e0818e03601f1901121562001d1f57600080fd5b62001d2962001b59565b858201518881111562001d3b57600080fd5b62001d4b8f888386010162001bb7565b82525060408201518881111562001d625760008081fd5b62001d728f888386010162001bb7565b878301525060608201518881111562001d8b5760008081fd5b62001d9b8f888386010162001bb7565b604083015250608080830151606083015260a0808401518284015260c0915062001dc782850162001c4c565b9083015262001dd960e0840162001c4c565b90820152835250918301919083019062001cef565b928a01516040909a0151929b999a509198975050505050505050565b634e487b7160e01b600052603260045260246000fd5b60006001820162001e4157634e487b7160e01b600052601160045260246000fd5b5060010190565b600181811c9082168062001e5d57607f821691505b60208210810362001e7e57634e487b7160e01b600052602260045260246000fd5b50919050565b610fc68062001e946000396000f3fe608060405234801561001057600080fd5b50600436106100885760003560e01c80638a6655d61161005b5780638a6655d6146100ff578063b1bf87b014610112578063b9d8455214610123578063dce8d8a31461013657600080fd5b80635d816e221461008d5780635e23c37c146100a2578063618bde0a146100cc57806381a60c0d146100ec575b600080fd5b6100a061009b366004610d4d565b610159565b005b6100b56100b0366004610d6f565b610192565b6040516100c3929190610e58565b60405180910390f35b6100df6100da366004610d6f565b610414565b6040516100c39190610e7b565b6100df6100fa366004610d6f565b6108fe565b6100a061010d366004610edd565b610b58565b6004546040519081526020016100c3565b6100a0610131366004610d4d565b610cdf565b610149610144366004610d6f565b610d0a565b60405190151581526020016100c3565b6005546001600160a01b0316331461017057600080fd5b806003541061017e57600080fd5b806004541161018c57600080fd5b50600455565b60006101da6040518060e001604052806060815260200160608152602001606081526020016000815260200160008152602001600060ff168152602001600060ff1681525090565b60008381526001602052604090206002810154640100000000900460ff169250821561040e576000600260008360030154815260200190815260200160002090506040518060e0016040528082600001805461023590610f09565b80601f016020809104026020016040519081016040528092919081815260200182805461026190610f09565b80156102ae5780601f10610283576101008083540402835291602001916102ae565b820191906000526020600020905b81548152906001019060200180831161029157829003601f168201915b505050505081526020018260010180546102c790610f09565b80601f01602080910402602001604051908101604052809291908181526020018280546102f390610f09565b80156103405780601f1061031557610100808354040283529160200191610340565b820191906000526020600020905b81548152906001019060200180831161032357829003601f168201915b5050505050815260200182600201805461035990610f09565b80601f016020809104026020016040519081016040528092919081815260200182805461038590610f09565b80156103d25780601f106103a7576101008083540402835291602001916103d2565b820191906000526020600020905b8154815290600101906020018083116103b557829003601f168201915b5050509183525050600060208201526004830154604082015260059092015460ff80821660608501526101009091041660809092019190915291505b50915091565b6000818152600160205260408120606091805b6000548110156104d6576000818154811061044457610444610f3d565b60009182526020909120600560069092020101546002840154610100900460ff90811691161480156104b157506000818154811061048457610484610f3d565b6000918252602090912060056006909202010154600284015462010000900460ff90811661010090920416145b156104c457816104c081610f53565b9250505b806104ce81610f53565b915050610427565b5060008167ffffffffffffffff8111156104f2576104f2610f7a565b60405190808252806020026020018201604052801561056957816020015b6105566040518060e001604052806060815260200160608152602001606081526020016000815260200160008152602001600060ff168152602001600060ff1681525090565b8152602001906001900390816105105790505b5090506000805b6000548110156108f3576000818154811061058d5761058d610f3d565b60009182526020909120600560069092020101546002860154610100900460ff90811691161480156105fa5750600081815481106105cd576105cd610f3d565b6000918252602090912060056006909202010154600286015462010000900460ff90811661010090920416145b156108e1576040518060e001604052806000838154811061061d5761061d610f3d565b9060005260206000209060060201600001805461063990610f09565b80601f016020809104026020016040519081016040528092919081815260200182805461066590610f09565b80156106b25780601f10610687576101008083540402835291602001916106b2565b820191906000526020600020905b81548152906001019060200180831161069557829003601f168201915b50505050508152602001600083815481106106cf576106cf610f3d565b906000526020600020906006020160010180546106eb90610f09565b80601f016020809104026020016040519081016040528092919081815260200182805461071790610f09565b80156107645780601f1061073957610100808354040283529160200191610764565b820191906000526020600020905b81548152906001019060200180831161074757829003601f168201915b505050505081526020016000838154811061078157610781610f3d565b9060005260206000209060060201600201805461079d90610f09565b80601f01602080910402602001604051908101604052809291908181526020018280546107c990610f09565b80156108165780601f106107eb57610100808354040283529160200191610816565b820191906000526020600020905b8154815290600101906020018083116107f957829003601f168201915b50505050508152602001600081526020016000838154811061083a5761083a610f3d565b90600052602060002090600602016004015481526020016000838154811061086457610864610f3d565b600091825260208083206005600690930201919091015460ff16835281549201918490811061089557610895610f3d565b6000918252602090912060069091020160050154610100900460ff16905283518490849081106108c7576108c7610f3d565b602002602001018190525081806108dd90610f53565b9250505b806108eb81610f53565b915050610570565b509095945050505050565b6060816004541061090e57600080fd5b6000805480602002602001604051908101604052809291908181526020016000905b82821015610b4d57838290600052602060002090600602016040518060e001604052908160008201805461096390610f09565b80601f016020809104026020016040519081016040528092919081815260200182805461098f90610f09565b80156109dc5780601f106109b1576101008083540402835291602001916109dc565b820191906000526020600020905b8154815290600101906020018083116109bf57829003601f168201915b505050505081526020016001820180546109f590610f09565b80601f0160208091040260200160405190810160405280929190818152602001828054610a2190610f09565b8015610a6e5780601f10610a4357610100808354040283529160200191610a6e565b820191906000526020600020905b815481529060010190602001808311610a5157829003601f168201915b50505050508152602001600282018054610a8790610f09565b80601f0160208091040260200160405190810160405280929190818152602001828054610ab390610f09565b8015610b005780601f10610ad557610100808354040283529160200191610b00565b820191906000526020600020905b815481529060010190602001808311610ae357829003601f168201915b505050918352505060038201546020808301919091526004830154604083015260059092015460ff8082166060840152610100909104166080909101529082526001929092019101610930565b505050509050919050565b80600354811015610b6857600080fd5b600454811115610b7757600080fd5b6000838152600160209081526040808320878452600292839052922090820154859287929091601260ff9091161015610baf57600080fd5b60028201546301000000900460ff16610bc757600080fd5b6002820154640100000000900460ff1615610be157600080fd5b6002820154600582015460ff90811661010090920416148015610c1d575060028201546005820154610100900460ff9081166201000090920416145b610c2657600080fd5b600087815260016020526040812060028101805464ff0000000019166401000000001790556003018990555b600054811015610cd4578860008281548110610c7057610c70610f3d565b90600052602060002090600602016004015403610cc25760008181548110610c9a57610c9a610f3d565b600091825260208220600360069092020101805491610cb883610f53565b9190505550610cd4565b80610ccc81610f53565b915050610c52565b505050505050505050565b6005546001600160a01b03163314610cf657600080fd5b8060035411610d0457600080fd5b50600355565b60008181526001602052604081206002810154601260ff90911610801590610d3d575060028101546301000000900460ff165b15610d4757600191505b50919050565b60008060408385031215610d6057600080fd5b50508035926020909101359150565b600060208284031215610d8157600080fd5b5035919050565b6000815180845260005b81811015610dae57602081850181015186830182015201610d92565b81811115610dc0576000602083870101525b50601f01601f19169290920160200192915050565b6000815160e08452610dea60e0850182610d88565b905060208301518482036020860152610e038282610d88565b91505060408301518482036040860152610e1d8282610d88565b915050606083015160608501526080830151608085015260ff60a08401511660a085015260ff60c08401511660c08501528091505092915050565b8215158152604060208201526000610e736040830184610dd5565b949350505050565b6000602080830181845280855180835260408601915060408160051b870101925083870160005b82811015610ed057603f19888603018452610ebe858351610dd5565b94509285019290850190600101610ea2565b5092979650505050505050565b600080600060608486031215610ef257600080fd5b505081359360208301359350604090920135919050565b600181811c90821680610f1d57607f821691505b602082108103610d4757634e487b7160e01b600052602260045260246000fd5b634e487b7160e01b600052603260045260246000fd5b600060018201610f7357634e487b7160e01b600052601160045260246000fd5b5060010190565b634e487b7160e01b600052604160045260246000fdfea264697066735822122054fbe9affe92042db981a5f5375f409d2ff4ac12f47ad2041c5318e6796c3b7f64736f6c634300080d0033",
  "immutableReferences": {},
  "source": "// SPDX-License-Identifier: GPL-3.0\npragma experimental ABIEncoderV2;\npragma solidity >=0.4.25 <0.9.0;\n\n/**\n * @title Ballot\n * @dev Implements voting process along with winning candidate\n */\ncontract Ballot {\n    struct Voter {\n        uint256 aadharNumber; // voter unique ID\n        string name;\n        uint8 age;\n        uint8 stateCode;\n        uint8 constituencyCode;\n        bool isAlive;\n        bool voted; // if true, that person already voted\n        uint256 votedTo; // aadhar number of the candidate\n    }\n\n    struct Candidate {\n        // Note: If we can limit the length to a certain number of bytes,\n        // we can use one of bytes1 to bytes32 because they are much cheaper\n\n        string name;\n        string partyShortcut;\n        string partyFlag;\n        uint256 voteCount; // number of accumulated votes\n        uint256 aadharNumber; // unique ID of candidate\n        uint8 stateCode;\n        uint8 constituencyCode;\n    }\n\n    Candidate[] internal candidates;\n    mapping(uint256 => Voter) internal voter;\n    mapping(uint256 => Candidate) internal candidate;\n    uint256 private votingStartTime;\n    uint256 private votingEndTime;\n    address electionChief;\n\n    /**\n     * @dev Create a new ballot to choose one of 'candidateNames'.\n     * @param candidates_ List of Candidates\n     * @param startTime_ When the voting process will start\n     * @param endTime_ When the voting process will end\n     */\n    constructor(\n        Candidate[] memory candidates_,\n        uint256 startTime_,\n        uint256 endTime_\n    ) {\n        initializeVoterDatabase_();\n        votingStartTime = startTime_;\n        votingEndTime = endTime_;\n        electionChief = msg.sender;\n        for (uint256 i = 0; i < candidates_.length; i++) {\n            Candidate memory cn_ = candidates_[i];\n            candidate[candidates_[i].aadharNumber] = cn_;\n            candidates.push(cn_);\n        }\n    }\n\n    /**\n     * @dev Get candidate list.\n     * @param voterAadharNumber Aadhar number of the current voter to send the relevent candidates list\n     * @return candidatesList_ All the politicians who participate in the election\n     */\n    function getCandidateList(uint256 voterAadharNumber)\n        public\n        view\n        returns (Candidate[] memory)\n    {\n        Voter storage voter_ = voter[voterAadharNumber];\n        uint256 _politicianOfMyConstituencyLength = 0;\n        for (uint256 i = 0; i < candidates.length; i++) {\n            if (\n                voter_.stateCode == candidates[i].stateCode &&\n                voter_.constituencyCode == candidates[i].constituencyCode\n            ) _politicianOfMyConstituencyLength++;\n        }\n        Candidate[] memory cc = new Candidate[](\n            _politicianOfMyConstituencyLength\n        );\n        uint256 _indx = 0;\n        for (uint256 i = 0; i < candidates.length; i++) {\n            if (\n                voter_.stateCode == candidates[i].stateCode &&\n                voter_.constituencyCode == candidates[i].constituencyCode\n            ) {\n                cc[_indx] = Candidate({\n                    name: candidates[i].name,\n                    partyShortcut: candidates[i].partyShortcut,\n                    partyFlag: candidates[i].partyFlag,\n                    voteCount: 0,\n                    aadharNumber: candidates[i].aadharNumber,\n                    stateCode: candidates[i].stateCode,\n                    constituencyCode: candidates[i].constituencyCode\n                });\n                _indx++;\n            }\n        }\n        return cc;\n    }\n\n    /**\n     * @dev Get candidate list.\n     * @param voterAadharNumber Aadhar number of the current voter to send the relevent candidates list\n     * @return voterEligible_ Whether the voter with provided aadhar is eligible or not\n     */\n    function isVoterEligible(uint256 voterAadharNumber)\n        public\n        view\n        returns (bool voterEligible_)\n    {\n        Voter storage voter_ = voter[voterAadharNumber];\n        if (voter_.age >= 18 && voter_.isAlive) voterEligible_ = true;\n    }\n\n    /**\n     * @dev Know whether the voter casted their vote or not. If casted get candidate object.\n     * @param voterAadharNumber Aadhar number of the current voter\n     * @return userVoted_ Boolean value which gives whether current voter casted vote or not\n     * @return candidate_ Candidate details to whom voter casted his/her vote\n     */\n    function didCurrentVoterVoted(uint256 voterAadharNumber)\n        public\n        view\n        returns (bool userVoted_, Candidate memory candidate_)\n    {\n        Voter storage voter_ = voter[voterAadharNumber];\n        userVoted_ = voter_.voted;\n        if (userVoted_) {\n            Candidate storage politician_ = candidate[voter_.votedTo];\n            candidate_ = Candidate({\n                name: politician_.name,\n                voteCount: 0,\n                aadharNumber: politician_.aadharNumber,\n                partyShortcut: politician_.partyShortcut,\n                partyFlag: politician_.partyFlag,\n                stateCode: politician_.stateCode,\n                constituencyCode: politician_.constituencyCode\n            });\n        }\n    }\n\n    /**\n     * @dev Give your vote to candidate.\n     * @param candidateAadharNumber Aadhar Number of the candidate\n     * @param voterAadharNumber Aadhar Number of the voter to avoid re-entry\n     * @param currentTime_ To check if the election has started or not\n     */\n    function vote(\n        uint256 candidateAadharNumber,\n        uint256 voterAadharNumber,\n        uint256 currentTime_\n    )\n        public\n        votingLinesAreOpen(currentTime_)\n        isEligibleVote(voterAadharNumber, candidateAadharNumber)\n    {\n        // updating the current voter values\n        voter[voterAadharNumber].voted = true;\n        voter[voterAadharNumber].votedTo = candidateAadharNumber;\n\n        // Incrementing the votes to the relevant candidate.\n        for (uint256 i = 0; i < candidates.length; i++) {\n            // we can't iterate via map to find who got most votes,\n            // so it has to be updated in array only\n            if (candidates[i].aadharNumber == candidateAadharNumber) {\n                candidates[i].voteCount++;\n                break;\n            }\n            // Candidate storage politician_ = candidate[candidateAadharNumber];\n            // politician_.voteCount++;\n        }\n    }\n\n    /**\n     * @dev Gives ending epoch time of voting\n     * @return endTime_ When the voting ends\n     */\n    function getVotingEndTime() public view returns (uint256 endTime_) {\n        endTime_ = votingEndTime;\n    }\n\n    /**\n     * @dev used to update the voting start & end times\n     * @param startTime_ Start time that needs to be updated\n     * @param currentTime_ Current time that needs to be updated\n     */\n    function updateVotingStartTime(uint256 startTime_, uint256 currentTime_)\n        public\n        isElectionChief\n    {\n        require(votingStartTime > currentTime_);\n        votingStartTime = startTime_;\n    }\n\n    /**\n     * @dev To extend the end of the voting\n     * @param endTime_ End time that needs to be updated\n     * @param currentTime_ Current time that needs to be updated\n     */\n    function extendVotingTime(uint256 endTime_, uint256 currentTime_)\n        public\n        isElectionChief\n    {\n        require(votingStartTime < currentTime_);\n        require(votingEndTime > currentTime_);\n        votingEndTime = endTime_;\n    }\n\n    /**\n     * @dev sends all candidate list with their votes count\n     * @param currentTime_ Current epoch time of length 10.\n     * @return candidateList_ List of Candidate objects\n     */\n    function getResults(uint256 currentTime_)\n        public\n        view\n        returns (Candidate[] memory)\n    {\n        // use \"assert\" for internal errors where as required for both internal & external\n        require(votingEndTime < currentTime_);\n        return candidates;\n    }\n\n    /**\n     * @notice To check if the voter's age is greater than or equal to 18\n     * @param currentTime_ Current epoch time of the voter\n     */\n    modifier votingLinesAreOpen(uint256 currentTime_) {\n        require(currentTime_ >= votingStartTime);\n        require(currentTime_ <= votingEndTime);\n        _;\n    }\n\n    /**\n     * @notice To check if the voter's age is greater than or equal to 18\n     * @param voterAadhar_ Aadhar number of the current voter\n     * @param candidateAadhar_ Aadhar number of the candidate\n     */\n    modifier isEligibleVote(uint256 voterAadhar_, uint256 candidateAadhar_) {\n        Voter storage voter_ = voter[voterAadhar_];\n        Candidate storage politician_ = candidate[candidateAadhar_];\n        require(voter_.age >= 18);\n        require(voter_.isAlive);\n        require(!voter_.voted);\n        require(\n            (politician_.stateCode == voter_.stateCode &&\n                politician_.constituencyCode == voter_.constituencyCode)\n        );\n        _;\n    }\n\n    /**\n     * @notice To check if the user is Election Chief or not\n     */\n    modifier isElectionChief() {\n        require(msg.sender == electionChief);\n        _;\n    }\n\n    /**\n     * Dummy data for Aadhar users\n     * In the future, we can have a an external API cal to centralized aadhar DB\n     * https://ethereum.stackexchange.com/a/334\n     * https://docs.chain.link/docs/make-a-http-get-request/\n     */\n    function initializeVoterDatabase_() internal {\n        // Andhra Pradesh\n        voter[uint256(482253918244)] = Voter({\n            name: \"Suresh\",\n            aadharNumber: uint256(482253918244),\n            age: uint8(21),\n            stateCode: uint8(10),\n            constituencyCode: uint8(1),\n            isAlive: true,\n            voted: false,\n            votedTo: uint256(0)\n        });\n        voter[uint256(532122269467)] = Voter({\n            name: \"Ramesh\",\n            aadharNumber: uint256(532122269467),\n            age: uint8(37),\n            stateCode: uint8(10),\n            constituencyCode: uint8(1),\n            isAlive: false,\n            voted: false,\n            votedTo: uint256(0)\n        });\n        voter[uint256(468065932286)] = Voter({\n            name: \"Mahesh\",\n            aadharNumber: uint256(468065932286),\n            age: uint8(26),\n            stateCode: uint8(10),\n            constituencyCode: uint8(1),\n            isAlive: true,\n            voted: false,\n            votedTo: uint256(0)\n        });\n        voter[uint256(809961147437)] = Voter({\n            name: \"Krishna\",\n            aadharNumber: uint256(809961147437),\n            age: uint8(19),\n            stateCode: uint8(10),\n            constituencyCode: uint8(2),\n            isAlive: true,\n            voted: false,\n            votedTo: uint256(0)\n        });\n        voter[uint256(908623597782)] = Voter({\n            name: \"Narendra\",\n            aadharNumber: uint256(908623597782),\n            age: uint8(36),\n            stateCode: uint8(10),\n            constituencyCode: uint8(2),\n            isAlive: true,\n            voted: false,\n            votedTo: uint256(0)\n        });\n        voter[uint256(760344621247)] = Voter({\n            name: \"Raghu\",\n            aadharNumber: uint256(760344621247),\n            age: uint8(42),\n            stateCode: uint8(10),\n            constituencyCode: uint8(2),\n            isAlive: true,\n            voted: false,\n            votedTo: uint256(0)\n        });\n        // Bihar\n        voter[uint256(908704156902)] = Voter({\n            name: \"Pushkar Kumar\",\n            aadharNumber: uint256(908704156902),\n            age: uint8(25),\n            stateCode: uint8(11),\n            constituencyCode: uint8(1),\n            isAlive: true,\n            voted: false,\n            votedTo: uint256(0)\n        });\n        voter[uint256(778925466180)] = Voter({\n            name: \"Kunal Kumar\",\n            aadharNumber: uint256(778925466180),\n            age: uint8(37),\n            stateCode: uint8(11),\n            constituencyCode: uint8(1),\n            isAlive: true,\n            voted: false,\n            votedTo: uint256(0)\n        });\n        voter[uint256(393071790055)] = Voter({\n            name: \"Kumar Sanket\",\n            aadharNumber: uint256(393071790055),\n            age: uint8(29),\n            stateCode: uint8(11),\n            constituencyCode: uint8(2),\n            isAlive: true,\n            voted: false,\n            votedTo: uint256(0)\n        });\n        voter[uint256(983881786161)] = Voter({\n            name: \"Pratik\",\n            aadharNumber: uint256(983881786161),\n            age: uint8(40),\n            stateCode: uint8(11),\n            constituencyCode: uint8(2),\n            isAlive: true,\n            voted: false,\n            votedTo: uint256(0)\n        });\n        voter[uint256(756623869645)] = Voter({\n            name: \"Aausi\",\n            aadharNumber: uint256(756623869645),\n            age: uint8(85),\n            stateCode: uint8(11),\n            constituencyCode: uint8(1),\n            isAlive: false,\n            voted: false,\n            votedTo: uint256(0)\n        });\n        voter[uint256(588109459505)] = Voter({\n            name: \"Pratiba\",\n            aadharNumber: uint256(588109459505),\n            age: uint8(68),\n            stateCode: uint8(11),\n            constituencyCode: uint8(2),\n            isAlive: false,\n            voted: false,\n            votedTo: uint256(0)\n        });\n        // West Bengal\n        voter[uint256(967746320661)] = Voter({\n            name: \"Ruchika\",\n            aadharNumber: uint256(967746320661),\n            age: uint8(26),\n            stateCode: uint8(11),\n            constituencyCode: uint8(1),\n            isAlive: true,\n            voted: false,\n            votedTo: uint256(0)\n        });\n        voter[uint256(727938171119)] = Voter({\n            name: \"Rambabu\",\n            aadharNumber: uint256(727938171119),\n            age: uint8(17),\n            stateCode: uint8(11),\n            constituencyCode: uint8(1),\n            isAlive: true,\n            voted: false,\n            votedTo: uint256(0)\n        });\n        voter[uint256(609015917688)] = Voter({\n            name: \"Matajii\",\n            aadharNumber: uint256(609015917688),\n            age: uint8(98),\n            stateCode: uint8(11),\n            constituencyCode: uint8(1),\n            isAlive: true,\n            voted: false,\n            votedTo: uint256(0)\n        });\n        voter[uint256(620107691388)] = Voter({\n            name: \"Mamata\",\n            aadharNumber: uint256(620107691388),\n            age: uint8(63),\n            stateCode: uint8(11),\n            constituencyCode: uint8(2),\n            isAlive: false,\n            voted: false,\n            votedTo: uint256(0)\n        });\n        voter[uint256(403561319377)] = Voter({\n            name: \"Ravi Varma\",\n            aadharNumber: uint256(403561319377),\n            age: uint8(42),\n            stateCode: uint8(11),\n            constituencyCode: uint8(2),\n            isAlive: true,\n            voted: false,\n            votedTo: uint256(0)\n        });\n        voter[uint256(837970229674)] = Voter({\n            name: \"Rahul\",\n            aadharNumber: uint256(837970229674),\n            age: uint8(56),\n            stateCode: uint8(11),\n            constituencyCode: uint8(2),\n            isAlive: true,\n            voted: false,\n            votedTo: uint256(0)\n        });\n    }\n}\n",
  "sourcePath": "/Users/sureshkonakanchi/Desktop/content-fest/E-Voting/blockchain/contracts/Ballot.sol",
  "compiler": {
    "name": "solc",
    "version": "0.8.13+commit.abaa5c0e.Emscripten.clang"
  },
  "schemaVersion": "3.4.6",
  "updatedAt": "2022-03-24T08:00:16.679Z",
  "devdoc": {
    "details": "Implements voting process along with winning candidate",
    "kind": "dev",
    "methods": {
      "constructor": {
        "details": "Create a new ballot to choose one of 'candidateNames'.",
        "params": {
          "candidates_": "List of Candidates",
          "endTime_": "When the voting process will end",
          "startTime_": "When the voting process will start"
        }
      },
      "didCurrentVoterVoted(uint256)": {
        "details": "Know whether the voter casted their vote or not. If casted get candidate object.",
        "params": {
          "voterAadharNumber": "Aadhar number of the current voter"
        },
        "returns": {
          "candidate_": "Candidate details to whom voter casted his/her vote",
          "userVoted_": "Boolean value which gives whether current voter casted vote or not"
        }
      },
      "extendVotingTime(uint256,uint256)": {
        "details": "To extend the end of the voting",
        "params": {
          "currentTime_": "Current time that needs to be updated",
          "endTime_": "End time that needs to be updated"
        }
      },
      "getCandidateList(uint256)": {
        "details": "Get candidate list.",
        "params": {
          "voterAadharNumber": "Aadhar number of the current voter to send the relevent candidates list"
        },
        "returns": {
          "_0": "candidatesList_ All the politicians who participate in the election"
        }
      },
      "getResults(uint256)": {
        "details": "sends all candidate list with their votes count",
        "params": {
          "currentTime_": "Current epoch time of length 10."
        },
        "returns": {
          "_0": "candidateList_ List of Candidate objects"
        }
      },
      "getVotingEndTime()": {
        "details": "Gives ending epoch time of voting",
        "returns": {
          "endTime_": "When the voting ends"
        }
      },
      "isVoterEligible(uint256)": {
        "details": "Get candidate list.",
        "params": {
          "voterAadharNumber": "Aadhar number of the current voter to send the relevent candidates list"
        },
        "returns": {
          "voterEligible_": "Whether the voter with provided aadhar is eligible or not"
        }
      },
      "updateVotingStartTime(uint256,uint256)": {
        "details": "used to update the voting start & end times",
        "params": {
          "currentTime_": "Current time that needs to be updated",
          "startTime_": "Start time that needs to be updated"
        }
      },
      "vote(uint256,uint256,uint256)": {
        "details": "Give your vote to candidate.",
        "params": {
          "candidateAadharNumber": "Aadhar Number of the candidate",
          "currentTime_": "To check if the election has started or not",
          "voterAadharNumber": "Aadhar Number of the voter to avoid re-entry"
        }
      }
    },
    "title": "Ballot",
    "version": 1
  },
  "userdoc": {
    "kind": "user",
    "methods": {},
    "version": 1
  }
}