{
  "contractName": "Ballot",
  "abi": [
    {
      "inputs": [
        {
          "internalType": "uint256",
          "name": "startTime_",
          "type": "uint256"
        },
        {
          "internalType": "uint256",
          "name": "endTime_",
          "type": "uint256"
        }
      ],
      "stateMutability": "nonpayable",
      "type": "constructor"
    },
    {
      "inputs": [
        {
          "internalType": "uint256",
          "name": "",
          "type": "uint256"
        }
      ],
      "name": "candidates",
      "outputs": [
        {
          "internalType": "string",
          "name": "name",
          "type": "string"
        },
        {
          "internalType": "string",
          "name": "partyShortcut",
          "type": "string"
        },
        {
          "internalType": "string",
          "name": "partyFlag",
          "type": "string"
        },
        {
          "internalType": "uint256",
          "name": "nominationNumber",
          "type": "uint256"
        },
        {
          "internalType": "uint8",
          "name": "stateCode",
          "type": "uint8"
        },
        {
          "internalType": "uint8",
          "name": "constituencyCode",
          "type": "uint8"
        }
      ],
      "stateMutability": "view",
      "type": "function"
    },
    {
      "inputs": [
        {
          "internalType": "uint256",
          "name": "voterAadharNumber",
          "type": "uint256"
        }
      ],
      "name": "getCandidateList",
      "outputs": [
        {
          "components": [
            {
              "internalType": "string",
              "name": "name",
              "type": "string"
            },
            {
              "internalType": "string",
              "name": "partyShortcut",
              "type": "string"
            },
            {
              "internalType": "string",
              "name": "partyFlag",
              "type": "string"
            },
            {
              "internalType": "uint256",
              "name": "nominationNumber",
              "type": "uint256"
            },
            {
              "internalType": "uint8",
              "name": "stateCode",
              "type": "uint8"
            },
            {
              "internalType": "uint8",
              "name": "constituencyCode",
              "type": "uint8"
            }
          ],
          "internalType": "struct Types.Candidate[]",
          "name": "",
          "type": "tuple[]"
        }
      ],
      "stateMutability": "view",
      "type": "function"
    },
    {
      "inputs": [
        {
          "internalType": "uint256",
          "name": "voterAadharNumber",
          "type": "uint256"
        }
      ],
      "name": "isVoterEligible",
      "outputs": [
        {
          "internalType": "bool",
          "name": "voterEligible_",
          "type": "bool"
        }
      ],
      "stateMutability": "view",
      "type": "function"
    },
    {
      "inputs": [
        {
          "internalType": "uint256",
          "name": "voterAadharNumber",
          "type": "uint256"
        }
      ],
      "name": "didCurrentVoterVoted",
      "outputs": [
        {
          "internalType": "bool",
          "name": "userVoted_",
          "type": "bool"
        },
        {
          "components": [
            {
              "internalType": "string",
              "name": "name",
              "type": "string"
            },
            {
              "internalType": "string",
              "name": "partyShortcut",
              "type": "string"
            },
            {
              "internalType": "string",
              "name": "partyFlag",
              "type": "string"
            },
            {
              "internalType": "uint256",
              "name": "nominationNumber",
              "type": "uint256"
            },
            {
              "internalType": "uint8",
              "name": "stateCode",
              "type": "uint8"
            },
            {
              "internalType": "uint8",
              "name": "constituencyCode",
              "type": "uint8"
            }
          ],
          "internalType": "struct Types.Candidate",
          "name": "candidate_",
          "type": "tuple"
        }
      ],
      "stateMutability": "view",
      "type": "function"
    },
    {
      "inputs": [
        {
          "internalType": "uint256",
          "name": "nominationNumber",
          "type": "uint256"
        },
        {
          "internalType": "uint256",
          "name": "voterAadharNumber",
          "type": "uint256"
        },
        {
          "internalType": "uint256",
          "name": "currentTime_",
          "type": "uint256"
        }
      ],
      "name": "vote",
      "outputs": [],
      "stateMutability": "nonpayable",
      "type": "function"
    },
    {
      "inputs": [],
      "name": "getVotingEndTime",
      "outputs": [
        {
          "internalType": "uint256",
          "name": "endTime_",
          "type": "uint256"
        }
      ],
      "stateMutability": "view",
      "type": "function"
    },
    {
      "inputs": [
        {
          "internalType": "uint256",
          "name": "startTime_",
          "type": "uint256"
        },
        {
          "internalType": "uint256",
          "name": "currentTime_",
          "type": "uint256"
        }
      ],
      "name": "updateVotingStartTime",
      "outputs": [],
      "stateMutability": "nonpayable",
      "type": "function"
    },
    {
      "inputs": [
        {
          "internalType": "uint256",
          "name": "endTime_",
          "type": "uint256"
        },
        {
          "internalType": "uint256",
          "name": "currentTime_",
          "type": "uint256"
        }
      ],
      "name": "extendVotingTime",
      "outputs": [],
      "stateMutability": "nonpayable",
      "type": "function"
    },
    {
      "inputs": [
        {
          "internalType": "uint256",
          "name": "currentTime_",
          "type": "uint256"
        }
      ],
      "name": "getResults",
      "outputs": [
        {
          "components": [
            {
              "internalType": "string",
              "name": "name",
              "type": "string"
            },
            {
              "internalType": "string",
              "name": "partyShortcut",
              "type": "string"
            },
            {
              "internalType": "string",
              "name": "partyFlag",
              "type": "string"
            },
            {
              "internalType": "uint256",
              "name": "voteCount",
              "type": "uint256"
            },
            {
              "internalType": "uint256",
              "name": "nominationNumber",
              "type": "uint256"
            },
            {
              "internalType": "uint8",
              "name": "stateCode",
              "type": "uint8"
            },
            {
              "internalType": "uint8",
              "name": "constituencyCode",
              "type": "uint8"
            }
          ],
          "internalType": "struct Types.Results[]",
          "name": "",
          "type": "tuple[]"
        }
      ],
      "stateMutability": "view",
      "type": "function"
    }
  ],
  "bytecode": "0x60806040523480156200001157600080fd5b5060405162003bb438038062003bb4833981016040819052620000349162002290565b6200003e62000069565b6200004862000c54565b600591909155600655600480546001600160a01b031916331790556200232f565b60408051600e8082526101e08201909252600091816020015b620000c26040518060c0016040528060608152602001606081526020016060815260200160008152602001600060ff168152602001600060ff1681525090565b815260200190600190039081620000825790505090506040518060c00160405280604051806040016040528060128152602001714368616e6472612042616275204e6169647560701b81525081526020016040518060400160405280600381526020016205444560ec1b81525081526020016040518060800160405280604c815260200162003b68604c9139815264a96106e5a66020820152600a6040820152600160609091015281518290600090620001805762000180620022b5565b60200260200101819052506040518060c00160405280604051806040016040528060118152602001704a6167616e204d6f68616e20526564647960781b815250815260200160405180604001604052806005815260200164059535243560dc1b81525081526020016040518060800160405280604e8152602001620039d1604e9139815264c27e5da76e6020820152600a60408201526001606090910181905282518391908110620002365762000236620022b5565b60200260200101819052506040518060c001604052806040518060400160405280600e81526020016d47205620416e6a616e6579756c7560901b81525081526020016040518060400160405280600381526020016205444560ec1b81525081526020016040518060800160405280604c815260200162003b68604c9139815264e19f3e55b76020820152600a60408201526002606090910181905282518391908110620002e757620002e7620022b5565b60200260200101819052506040518060c001604052806040518060400160405280601081526020016f20b734b61025bab6b0b9102cb0b230bb60811b815250815260200160405180604001604052806005815260200164059535243560dc1b81525081526020016040518060800160405280604e8152602001620039d1604e913981526463f451cce26020820152600a604082015260026060909101528151829060039081106200039c576200039c620022b5565b60200260200101819052506040518060c001604052806040518060400160405280600d81526020016c4e6172656e647261204d6f646960981b8152508152602001604051806040016040528060038152602001620424a560ec1b81525081526020016040518060800160405280604c815260200162003a1f604c9139815264d077cd0b7d6020820152600b604082015260016060909101528151829060049081106200044c576200044c620022b5565b60200260200101819052506040518060c001604052806040518060400160405280600c81526020016b526168756c2047616e64686960a01b815250815260200160405180604001604052806003815260200162494e4360e81b81525081526020016040518060800160405280604c815260200162003ab7604c9139815264ccd999a21c6020820152600b60408201526001606090910152815182906005908110620004fb57620004fb620022b5565b60200260200101819052506040518060c001604052806040518060400160405280600d81526020016c2a32b530b9bbb4902cb0b230bb60991b81525081526020016040518060400160405280600381526020016214929160ea1b81525081526020016040518060800160405280605c815260200162003975605c9139815264e773cd9afe6020820152600b60408201526001606090910152815182906006908110620005ab57620005ab620022b5565b60200260200101819052506040518060c001604052806040518060400160405280600f81526020016e105c9d9a5b990812d95a9c9a5dd85b608a1b81525081526020016040518060400160405280600381526020016204141560ec1b81525081526020016040518060800160405280604c815260200162003a6b604c9139815264bbe6eb29d56020820152600b604082015260016060909101528151829060079081106200065d576200065d620022b5565b60200260200101819052506040518060c001604052806040518060400160405280600a8152602001694a796f7469204261737560b01b8152508152602001604051806040016040528060048152602001634350494d60e01b81525081526020016040518060a001604052806065815260200162003b03606591398152648f444202746020820152600b604082015260016060909101528151829060089081106200070b576200070b620022b5565b60200260200101819052506040518060c0016040528060405180604001604052806009815260200168082dad2e840a6d0c2d60bb1b8152508152602001604051806040016040528060038152602001620424a560ec1b81525081526020016040518060800160405280604c815260200162003a1f604c91398152648e7ddb11c26020820152600b60408201526002606090910152815182906009908110620007b757620007b7620022b5565b60200260200101819052506040518060c001604052806040518060400160405280600f81526020016e50726979616e6b612047616e64686960881b815250815260200160405180604001604052806003815260200162494e4360e81b81525081526020016040518060800160405280604c815260200162003ab7604c9139815264c9c70244b06020820152600b6040820152600260609091015281518290600a908110620008695762000869620022b5565b60200260200101819052506040518060c001604052806040518060400160405280600a8152602001692630b63a902cb0b230bb60b11b81525081526020016040518060400160405280600381526020016214929160ea1b81525081526020016040518060800160405280605c815260200162003975605c9139815260200164b248bcb8c18152602001600b60ff168152602001600260ff1681525081600b815181106200091a576200091a620022b5565b60200260200101819052506040518060c001604052806040518060400160405280600e81526020016d4d616e697368205369736f64696160901b81525081526020016040518060400160405280600381526020016204141560ec1b81525081526020016040518060800160405280604c815260200162003a6b604c9139815264d10c6172546020820152600b6040820152600260609091015281518290600c908110620009cb57620009cb620022b5565b60200260200101819052506040518060c001604052806040518060400160405280600d81526020016c141c985ad85cda0812d85c985d609a1b8152508152602001604051806040016040528060048152602001634350494d60e01b81525081526020016040518060a001604052806065815260200162003b03606591398152646bfb1a26266020820152600b6040820152600260609091015281518290600d90811062000a7c5762000a7c620022b5565b602002602001018190525060005b815181101562000c505781818151811062000aa95762000aa9620022b5565b60200260200101516002600084848151811062000aca5762000aca620022b5565b6020026020010151606001518152602001908152602001600020600082015181600001908051906020019062000b02929190620021ea565b50602082810151805162000b1d9260018501920190620021ea565b506040820151805162000b3b916002840191602090910190620021ea565b506060820151600382015560808201516004909101805460a09093015160ff9081166101000261ffff19909416921691909117919091179055815160009083908390811062000b8e5762000b8e620022b5565b60209081029190910181015182546001810184556000938452928290208151805192946005029091019262000bc992849290910190620021ea565b50602082810151805162000be49260018501920190620021ea565b506040820151805162000c02916002840191602090910190620021ea565b506060820151600382015560808201516004909101805460a09093015160ff9081166101000261ffff199094169216919091179190911790558062000c4781620022cb565b91505062000a8a565b5050565b6040805160e08101825264704892d0248082528251808401845260068152650a6eae4cae6d60d31b602082810191909152808401918252601594840194909452600a606084015260016080840181905260a08401819052600060c085018190529290925290835281517fa7a766775a1cc834fc59ee5e38e7a27c550be59c7dbd2dc8ec140f4b1f466779908155905180519293919262000d18927fa7a766775a1cc834fc59ee5e38e7a27c550be59c7dbd2dc8ec140f4b1f46677a920190620021ea565b5060408281015160028301805460608087015160808089015160a0808b0151151563010000000263ff0000001960ff93841662010000021663ffff0000199584166101000261ffff1990981693909916929092179590951792909216959095171790925560c095860151600390950194909455825160e081018452647be4f5771b8082528451808601865260068152650a4c2dacae6d60d31b602082810191909152808401918252602596840196909652600a938301939093526001938201849052600095820186905295810185905294909352815282517f232cd2334dd65769e71e2aa2c195cf980876a8eb6ecf2048ca949faf6674a2e19081559151805162000e47927f232cd2334dd65769e71e2aa2c195cf980876a8eb6ecf2048ca949faf6674a2e2920190620021ea565b5060408281015160028301805460608087015160808089015160a0808b0151151563010000000263ff0000001960ff93841662010000021663ffff0000199584166101000261ffff1990981693909916929092179590951792909216959095171790925560c095860151600390950194909455825160e081018452646cfae753fe80825284518086018652600681526509ac2d0cae6d60d31b602082810191909152808401918252601a96840196909652600a938301939093526001938201849052948101839052600095810186905293909452815281517f1b3a7021b910de42e48c53ef9e4dd9d06e206d1a40f603d5f2b202a2e3c6ee609081559251805192939262000f79927f1b3a7021b910de42e48c53ef9e4dd9d06e206d1a40f603d5f2b202a2e3c6ee61920190620021ea565b50604082810151600280840180546060808801516080808a015160a0808c0151151563010000000263ff0000001960ff93841662010000021663ffff0000199584166101000261ffff1990981693909a16929092179590951792909216969096171790925560c096870151600390960195909555835160e08101855264bc95724c2d8082528551808701875260078152664b726973686e6160c81b602082810191909152808401918252601397840197909752600a9383019390935293810192909252600194820185905260009582018690529190945291815282517f1757a57a3665fdfdc357993048df2993db9c64b80e0fbfcbca368d33c1c71cae90815591518051620010ac927f1757a57a3665fdfdc357993048df2993db9c64b80e0fbfcbca368d33c1c71caf920190620021ea565b50604082810151600280840180546060808801516080808a015160a0808c0151151563010000000263ff0000001960ff93841662010000021663ffff0000199584166101000261ffff1990981693909a16929092179590951792909216969096171790925560c096870151600390960195909555835160e08101855264d38e2fd0d68082528551808701875260088152674e6172656e64726160c01b602082810191909152808401918252602497840197909752600a9383019390935293810192909252600194820185905260009582018690529190945291815282517f35388ea09f12e739d60ed1f05e898eb6777f2cbfb0a7050c9dde6e36f231612790815591518051620011e0927f35388ea09f12e739d60ed1f05e898eb6777f2cbfb0a7050c9dde6e36f2316128920190620021ea565b50604082810151600280840180546060808801516080808a015160a0808c0151151563010000000263ff0000001960ff93841662010000021663ffff0000199584166101000261ffff1990981693909a16929092179590951792909216969096171790925560c096870151600390960195909555835160e08101855264b1081230bf808252855180870187526005815264526167687560d81b602082810191909152808401918252602a97840197909752600a9383019390935293810192909252600194820185905260009582018690529190945291815282517f443e070219c8cb3c0f3ee528dd5680b5cf16ddda358bf5d2d95a895459fcd2329081559151805162001311927f443e070219c8cb3c0f3ee528dd5680b5cf16ddda358bf5d2d95a895459fcd233920190620021ea565b5060408281015160028301805460608087015160808089015160a0808b0151151563010000000263ff0000001960ff93841662010000021663ffff0000199584166101000261ffff1990981693909916929092179590951792909216959095171790925560c095860151600390950194909455825160e08101845264d392fd0ce680825284518086018652600d81526c283ab9b435b0b91025bab6b0b960991b602082810191909152808401918252601996840196909652600b938301939093526001938201849052948101839052600095810186905293909452815281517fe37e3282cf946d42746d01da27e04c4fe48ad3543cee63ab42de9b0f273c984e908155925180519293926200144a927fe37e3282cf946d42746d01da27e04c4fe48ad3543cee63ab42de9b0f273c984f920190620021ea565b5060408281015160028301805460608087015160808089015160a0808b0151151563010000000263ff0000001960ff93841662010000021663ffff0000199584166101000261ffff1990981693909916929092179590951792909216959095171790925560c095860151600390950194909455825160e08101845264b55b93624480825284518086018652600b8082526a25bab730b61025bab6b0b960a91b602083810191909152808501928352602597850197909752938301939093526001938201849052948101839052600095810186905293909452815281517f30d4b24505605762448e86fccc156aa1978eeea8d82899cffd4384c78b10c3ff9081559251805192939262001580927f30d4b24505605762448e86fccc156aa1978eeea8d82899cffd4384c78b10c400920190620021ea565b50604082810151600280840180546060808801516080808a015160a0808c0151151563010000000263ff0000001960ff93841662010000021663ffff0000199584166101000261ffff1990981693909a16929092179590951792909216969096171790925560c096870151600390960195909555835160e081018552645b84e787e780825285518087018752600c81526b12dd5b585c8814d85b9ad95d60a21b602082810191909152808401918252601d97840197909752600b9383019390935293810192909252600194820185905260009582018690529190945291815282517f25960912c3b6edab299da1dc45160cd1fd55e1029d7207fb8128077bd9e85b9c90815591518051620016b8927f25960912c3b6edab299da1dc45160cd1fd55e1029d7207fb8128077bd9e85b9d920190620021ea565b50604082810151600280840180546060808801516080808a015160a0808c0151151563010000000263ff0000001960ff93841662010000021663ffff0000199584166101000261ffff1990981693909a16929092179590951792909216969096171790925560c096870151600390960195909555835160e08101855264e513eca33180825285518087018752600681526550726174696b60d01b602082810191909152808401918252602897840197909752600b9383019390935293810192909252600194820185905260009582018690529190945291815282517fb1d20da8c8c00c29f5e8df9faf66df82b30b02c992dfb100605535988c968e4f90815591518051620017ea927fb1d20da8c8c00c29f5e8df9faf66df82b30b02c992dfb100605535988c968e50920190620021ea565b5060408281015160028301805460608087015160808089015160a0808b0151151563010000000263ff0000001960ff93841662010000021663ffff0000199584166101000261ffff1990981693909916929092179590951792909216959095171790925560c095860151600390950194909455825160e08101845264b02a4c06cd808252845180860186526005815264416175736960d81b602082810191909152808401918252605596840196909652600b938301939093526001938201849052600095820186905295810185905294909352815282517f804168a7ad743abc9352750a537b700b3c0b600d928c4765fb15c795ffe6ee559081559151805162001918927f804168a7ad743abc9352750a537b700b3c0b600d928c4765fb15c795ffe6ee56920190620021ea565b50604082810151600280840180546060808801516080808a015160a0808c0151151563010000000263ff0000001960ff93841662010000021663ffff0000199584166101000261ffff1990981693909a16929092179590951792909216969096171790925560c096870151600390960195909555835160e0810185526488ee0e30318082528551808701875260078152665072617469626160c81b602082810191909152808401918252604497840197909752600b9383019390935293810192909252600094820185905294810184905292526001815281517f4a3fb811d4b113ee2ca65a56f87b884561696a1fc7edd3fe98eaf05f0e04f4769081559251805192939262001a4b927f4a3fb811d4b113ee2ca65a56f87b884561696a1fc7edd3fe98eaf05f0e04f477920190620021ea565b5060408281015160028301805460608087015160808089015160a0808b0151151563010000000263ff0000001960ff93841662010000021663ffff0000199584166101000261ffff1990981693909916929092179590951792909216959095171790925560c095860151600390950194909455825160e08101845264e1522cf91580825284518086018652600781526652756368696b6160c81b602082810191909152808401918252601a96840196909652600b938301939093526001938201849052948101839052600095810186905293909452815281517f57026994d2ae0eca866a75a551989963e7d4d94050f79a43e945ffe7af06ef2c9081559251805192939262001b7e927f57026994d2ae0eca866a75a551989963e7d4d94050f79a43e945ffe7af06ef2d920190620021ea565b5060408281015160028301805460608087015160808089015160a0808b0151151563010000000263ff0000001960ff93841662010000021663ffff0000199584166101000261ffff1990981693909916929092179590951792909216959095171790925560c095860151600390950194909455825160e08101845264a97c7f00ef80825284518086018652600781526652616d6261627560c81b602082810191909152808401918252601196840196909652600b938301939093526001938201849052948101839052600095810186905293909452815281517f4d21fa55ebfb6c114e74444f0f357971a8f79e2c19860f008d608674412396889081559251805192939262001cb1927f4d21fa55ebfb6c114e74444f0f357971a8f79e2c19860f008d60867441239689920190620021ea565b5060408281015160028301805460608087015160808089015160a0808b0151151563010000000263ff0000001960ff93841662010000021663ffff0000199584166101000261ffff1990981693909916929092179590951792909216959095171790925560c095860151600390950194909455825160e081018452648dcc2d6c788082528451808601865260078152664d6174616a696960c81b602082810191909152808401918252606296840196909652600b938301939093526001938201849052948101839052600095810186905293909452815281517f175640b7317f48c1fe13b4943aa8db51ed910f24b59c7c7a87df1162869c41299081559251805192939262001de4927f175640b7317f48c1fe13b4943aa8db51ed910f24b59c7c7a87df1162869c412a920190620021ea565b50604082810151600280840180546060808801516080808a015160a0808c0151151563010000000263ff0000001960ff93841662010000021663ffff0000199584166101000261ffff1990981693909a16929092179590951792909216969096171790925560c096870151600390960195909555835160e0810185526490614c757c8082528551808701875260068152654d616d61746160d01b602082810191909152808401918252603f97840197909752600b9383019390935293810192909252600094820185905294810184905292526001815281517f02c514276c4433674743470a9edf69caf9576393cb4e3e4e47d815521a37e1af9081559251805192939262001f16927f02c514276c4433674743470a9edf69caf9576393cb4e3e4e47d815521a37e1b0920190620021ea565b50604082810151600280840180546060808801516080808a015160a0808c0151151563010000000263ff0000001960ff93841662010000021663ffff0000199584166101000261ffff1990981693909a16929092179590951792909216969096171790925560c096870151600390960195909555835160e081018552645df6210bd180825285518087018752600a81526952617669205661726d6160b01b602082810191909152808401918252602a97840197909752600b9383019390935293810192909252600194820185905260009582018690529190945291815282517f02ea4325dbef716443262e28d8675f811ec12200c84f4bf58633d94510ce66d2908155915180516200204c927f02ea4325dbef716443262e28d8675f811ec12200c84f4bf58633d94510ce66d3920190620021ea565b50604082810151600280840180546060808801516080808a015160a0808c0151151563010000000263ff0000001960ff93841662010000021663ffff0000199584166101000261ffff1990981693909a16929092179590951792909216969096171790925560c096870151600390960195909555835160e08101855264c31aeaf9aa80825285518087018752600581526414985a1d5b60da1b602082810191909152808401918252603897840197909752600b9383019390935293810192909252600194820185905260009582018690529190945291815282517f51a0e312c4d04dc1a459128c3f53e3f3cd897635741f156d17548f323209fd38908155915180516200217d927f51a0e312c4d04dc1a459128c3f53e3f3cd897635741f156d17548f323209fd39920190620021ea565b5060408201516002820180546060850151608086015160a0870151151563010000000263ff0000001960ff92831662010000021663ffff0000199383166101000261ffff19909516929096169190911792909217169290921791909117905560c090910151600390910155565b828054620021f890620022f3565b90600052602060002090601f0160209004810192826200221c576000855562002267565b82601f106200223757805160ff191683800117855562002267565b8280016001018555821562002267579182015b82811115620022675782518255916020019190600101906200224a565b506200227592915062002279565b5090565b5b808211156200227557600081556001016200227a565b60008060408385031215620022a457600080fd5b505080516020909101519092909150565b634e487b7160e01b600052603260045260246000fd5b600060018201620022ec57634e487b7160e01b600052601160045260246000fd5b5060010190565b600181811c908216806200230857607f821691505b6020821081036200232957634e487b7160e01b600052602260045260246000fd5b50919050565b611636806200233f6000396000f3fe608060405234801561001057600080fd5b50600436106100935760003560e01c806381a60c0d1161006657806381a60c0d1461011c5780638a6655d61461013c578063b1bf87b01461014f578063b9d8455214610160578063dce8d8a31461017357600080fd5b80633477ee2e146100985780635d816e22146100c65780635e23c37c146100db578063618bde0a146100fc575b600080fd5b6100ab6100a6366004611279565b610196565b6040516100bd969594939291906112df565b60405180910390f35b6100d96100d436600461133b565b610381565b005b6100ee6100e9366004611279565b6103ba565b6040516100bd9291906113d6565b61010f61010a366004611279565b610622565b6040516100bd91906113f9565b61012f61012a366004611279565b610a59565b6040516100bd919061145b565b6100d961014a36600461152d565b610e2e565b6006546040519081526020016100bd565b6100d961016e36600461133b565b61120b565b610186610181366004611279565b611236565b60405190151581526020016100bd565b600081815481106101a657600080fd5b90600052602060002090600502016000915090508060000180546101c990611559565b80601f01602080910402602001604051908101604052809291908181526020018280546101f590611559565b80156102425780601f1061021757610100808354040283529160200191610242565b820191906000526020600020905b81548152906001019060200180831161022557829003601f168201915b50505050509080600101805461025790611559565b80601f016020809104026020016040519081016040528092919081815260200182805461028390611559565b80156102d05780601f106102a5576101008083540402835291602001916102d0565b820191906000526020600020905b8154815290600101906020018083116102b357829003601f168201915b5050505050908060020180546102e590611559565b80601f016020809104026020016040519081016040528092919081815260200182805461031190611559565b801561035e5780601f106103335761010080835404028352916020019161035e565b820191906000526020600020905b81548152906001019060200180831161034157829003601f168201915b50505050600383015460049093015491929160ff80821692506101009091041686565b6004546001600160a01b0316331461039857600080fd5b80600554106103a657600080fd5b80600654116103b457600080fd5b50600655565b60006103fb6040518060c0016040528060608152602001606081526020016060815260200160008152602001600060ff168152602001600060ff1681525090565b600083815260016020526040902060030154158015925061061d576000838152600160209081526040808320600301548352600290915290819020815160c0810190925280548290829061044e90611559565b80601f016020809104026020016040519081016040528092919081815260200182805461047a90611559565b80156104c75780601f1061049c576101008083540402835291602001916104c7565b820191906000526020600020905b8154815290600101906020018083116104aa57829003601f168201915b505050505081526020016001820180546104e090611559565b80601f016020809104026020016040519081016040528092919081815260200182805461050c90611559565b80156105595780601f1061052e57610100808354040283529160200191610559565b820191906000526020600020905b81548152906001019060200180831161053c57829003601f168201915b5050505050815260200160028201805461057290611559565b80601f016020809104026020016040519081016040528092919081815260200182805461059e90611559565b80156105eb5780601f106105c0576101008083540402835291602001916105eb565b820191906000526020600020905b8154815290600101906020018083116105ce57829003601f168201915b50505091835250506003820154602082015260049091015460ff80821660408401526101009091041660609091015290505b915091565b6000818152600160205260408120606091805b6000548110156106e457600081815481106106525761065261158d565b60009182526020909120600460059092020101546002840154610100900460ff90811691161480156106bf5750600081815481106106925761069261158d565b6000918252602090912060046005909202010154600284015462010000900460ff90811661010090920416145b156106d257816106ce816115b9565b9250505b806106dc816115b9565b915050610635565b5060008167ffffffffffffffff811115610700576107006115d2565b60405190808252806020026020018201604052801561077057816020015b61075d6040518060c0016040528060608152602001606081526020016060815260200160008152602001600060ff168152602001600060ff1681525090565b81526020019060019003908161071e5790505b5090506000805b600054811015610a4e57600081815481106107945761079461158d565b60009182526020909120600460059092020101546002860154610100900460ff90811691161480156108015750600081815481106107d4576107d461158d565b6000918252602090912060046005909202010154600286015462010000900460ff90811661010090920416145b15610a3c57600081815481106108195761081961158d565b90600052602060002090600502016040518060c001604052908160008201805461084290611559565b80601f016020809104026020016040519081016040528092919081815260200182805461086e90611559565b80156108bb5780601f10610890576101008083540402835291602001916108bb565b820191906000526020600020905b81548152906001019060200180831161089e57829003601f168201915b505050505081526020016001820180546108d490611559565b80601f016020809104026020016040519081016040528092919081815260200182805461090090611559565b801561094d5780601f106109225761010080835404028352916020019161094d565b820191906000526020600020905b81548152906001019060200180831161093057829003601f168201915b5050505050815260200160028201805461096690611559565b80601f016020809104026020016040519081016040528092919081815260200182805461099290611559565b80156109df5780601f106109b4576101008083540402835291602001916109df565b820191906000526020600020905b8154815290600101906020018083116109c257829003601f168201915b50505091835250506003820154602082015260049091015460ff8082166040840152610100909104166060909101528351849084908110610a2257610a2261158d565b60200260200101819052508180610a38906115b9565b9250505b80610a46816115b9565b915050610777565b509095945050505050565b60608160065410610a6957600080fd5b6000805467ffffffffffffffff811115610a8557610a856115d2565b604051908082528060200260200182016040528015610afc57816020015b610ae96040518060e001604052806060815260200160608152602001606081526020016000815260200160008152602001600060ff168152602001600060ff1681525090565b815260200190600190039081610aa35790505b50905060005b600054811015610e27576040518060e0016040528060008381548110610b2a57610b2a61158d565b90600052602060002090600502016000018054610b4690611559565b80601f0160208091040260200160405190810160405280929190818152602001828054610b7290611559565b8015610bbf5780601f10610b9457610100808354040283529160200191610bbf565b820191906000526020600020905b815481529060010190602001808311610ba257829003601f168201915b5050505050815260200160008381548110610bdc57610bdc61158d565b90600052602060002090600502016001018054610bf890611559565b80601f0160208091040260200160405190810160405280929190818152602001828054610c2490611559565b8015610c715780601f10610c4657610100808354040283529160200191610c71565b820191906000526020600020905b815481529060010190602001808311610c5457829003601f168201915b5050505050815260200160008381548110610c8e57610c8e61158d565b90600052602060002090600502016002018054610caa90611559565b80601f0160208091040260200160405190810160405280929190818152602001828054610cd690611559565b8015610d235780601f10610cf857610100808354040283529160200191610d23565b820191906000526020600020905b815481529060010190602001808311610d0657829003601f168201915b5050505050815260200160036000808581548110610d4357610d4361158d565b906000526020600020906005020160030154815260200190815260200160002054815260200160008381548110610d7c57610d7c61158d565b906000526020600020906005020160030154815260200160008381548110610da657610da661158d565b600091825260208083206004600590930201919091015460ff168352815492019184908110610dd757610dd761158d565b6000918252602090912060059091020160040154610100900460ff1690528251839083908110610e0957610e0961158d565b60200260200101819052508080610e1f906115b9565b915050610b02565b5092915050565b80600554811015610e3e57600080fd5b600654811115610e4d57600080fd5b82846000600160008481526020019081526020016000206040518060e001604052908160008201548152602001600182018054610e8990611559565b80601f0160208091040260200160405190810160405280929190818152602001828054610eb590611559565b8015610f025780601f10610ed757610100808354040283529160200191610f02565b820191906000526020600020905b815481529060010190602001808311610ee557829003601f168201915b505050918352505060028281015460ff808216602080860191909152610100830482166040808701919091526201000084048316606087015263010000009093049091161515608085015260039094015460a09093019290925260008681529252808220815160c081019092528054939450919290919082908290610f8690611559565b80601f0160208091040260200160405190810160405280929190818152602001828054610fb290611559565b8015610fff5780601f10610fd457610100808354040283529160200191610fff565b820191906000526020600020905b815481529060010190602001808311610fe257829003601f168201915b5050505050815260200160018201805461101890611559565b80601f016020809104026020016040519081016040528092919081815260200182805461104490611559565b80156110915780601f1061106657610100808354040283529160200191611091565b820191906000526020600020905b81548152906001019060200180831161107457829003601f168201915b505050505081526020016002820180546110aa90611559565b80601f01602080910402602001604051908101604052809291908181526020018280546110d690611559565b80156111235780601f106110f857610100808354040283529160200191611123565b820191906000526020600020905b81548152906001019060200180831161110657829003601f168201915b50505091835250506003820154602082015260049091015460ff808216604080850191909152610100909204811660609093019290925284015191925060129116101561116f57600080fd5b8160a0015161117d57600080fd5b60c08201511561118c57600080fd5b816060015160ff16816080015160ff161480156111b65750816080015160ff168160a0015160ff16145b6111bf57600080fd5b600087815260016020818152604080842060039081018d90558c855290915290912054906111ee9082906115e8565b6000998a5260036020526040909920989098555050505050505050565b6004546001600160a01b0316331461122257600080fd5b806005541161123057600080fd5b50600555565b60008181526001602052604081206002810154601260ff90911610801590611269575060028101546301000000900460ff165b1561127357600191505b50919050565b60006020828403121561128b57600080fd5b5035919050565b6000815180845260005b818110156112b85760208185018101518683018201520161129c565b818111156112ca576000602083870101525b50601f01601f19169290920160200192915050565b60c0815260006112f260c0830189611292565b82810360208401526113048189611292565b905082810360408401526113188188611292565b6060840196909652505060ff9283166080820152911660a0909101529392505050565b6000806040838503121561134e57600080fd5b50508035926020909101359150565b6000815160c0845261137260c0850182611292565b90506020830151848203602086015261138b8282611292565b915050604083015184820360408601526113a58282611292565b9150506060830151606085015260ff608084015116608085015260ff60a08401511660a08501528091505092915050565b82151581526040602082015260006113f1604083018461135d565b949350505050565b6000602080830181845280855180835260408601915060408160051b870101925083870160005b8281101561144e57603f1988860301845261143c85835161135d565b94509285019290850190600101611420565b5092979650505050505050565b60006020808301818452808551808352604092508286019150828160051b87010184880160005b8381101561151f57603f19898403018552815160e081518186526114a882870182611292565b915050888201518582038a8701526114c08282611292565b91505087820151858203898701526114d88282611292565b606084810151908801526080808501519088015260a08085015160ff9081169189019190915260c09485015116939096019290925250509386019390860190600101611482565b509098975050505050505050565b60008060006060848603121561154257600080fd5b505081359360208301359350604090920135919050565b600181811c9082168061156d57607f821691505b60208210810361127357634e487b7160e01b600052602260045260246000fd5b634e487b7160e01b600052603260045260246000fd5b634e487b7160e01b600052601160045260246000fd5b6000600182016115cb576115cb6115a3565b5060010190565b634e487b7160e01b600052604160045260246000fd5b600082198211156115fb576115fb6115a3565b50019056fea264697066735822122038e02158c2203b758cb5546dde2d8b9dab92478a849137a5905e9a9c8e5c699b64736f6c634300080d003368747470733a2f2f7265732e636c6f7564696e6172792e636f6d2f646a3974747362676d2f696d6167652f75706c6f61642f76313634383130313036352f3132303070782d524a445f466c61672e7376675f6172727276742e706e6768747470733a2f2f7265732e636c6f7564696e6172792e636f6d2f646a3974747362676d2f696d6167652f75706c6f61642f76313634383130313036352f79737263705f7361733331312e706e6768747470733a2f2f7265732e636c6f7564696e6172792e636f6d2f646a3974747362676d2f696d6167652f75706c6f61642f76313634383130313036342f626a705f6e6b34736e772e706e6768747470733a2f2f7265732e636c6f7564696e6172792e636f6d2f646a3974747362676d2f696d6167652f75706c6f61642f76313634383130313036352f6161705f756a6775796c2e706e6768747470733a2f2f7265732e636c6f7564696e6172792e636f6d2f646a3974747362676d2f696d6167652f75706c6f61642f76313634383130313036342f696e635f73316f716e352e706e6768747470733a2f2f7265732e636c6f7564696e6172792e636f6d2f646a3974747362676d2f696d6167652f75706c6f61642f76313634383130313036342f3130323470782d4370696d5f70617274795f73796d626f6c2e7376675f6d75316770702e706e6768747470733a2f2f7265732e636c6f7564696e6172792e636f6d2f646a3974747362676d2f696d6167652f75706c6f61642f76313634383130313036352f7464705f716831726b6a2e706e67",
  "immutableReferences": {},
  "source": "// SPDX-License-Identifier: GPL-3.0\npragma experimental ABIEncoderV2;\npragma solidity >=0.4.25 <0.9.0;\n\nimport \"./Types.sol\";\n\n/**\n * @title Ballot\n * @author Suresh Konakanchi\n * @dev Implements voting process along with winning candidate\n */\ncontract Ballot {\n    Types.Candidate[] public candidates;\n    mapping(uint256 => Types.Voter) voter;\n    mapping(uint256 => Types.Candidate) candidate;\n    mapping(uint256 => uint256) internal votesCount;\n\n    address electionChief;\n    uint256 private votingStartTime;\n    uint256 private votingEndTime;\n\n    /**\n     * @dev Create a new ballot to choose one of 'candidateNames'\n     * @param startTime_ When the voting process will start\n     * @param endTime_ When the voting process will end\n     */\n    constructor(uint256 startTime_, uint256 endTime_) {\n        initializeCandidateDatabase_();\n        initializeVoterDatabase_();\n        votingStartTime = startTime_;\n        votingEndTime = endTime_;\n        electionChief = msg.sender;\n    }\n\n    /**\n     * @dev Get candidate list.\n     * @param voterAadharNumber Aadhar number of the current voter to send the relevent candidates list\n     * @return candidatesList_ All the politicians who participate in the election\n     */\n    function getCandidateList(uint256 voterAadharNumber)\n        public\n        view\n        returns (Types.Candidate[] memory)\n    {\n        Types.Voter storage voter_ = voter[voterAadharNumber];\n        uint256 _politicianOfMyConstituencyLength = 0;\n\n        for (uint256 i = 0; i < candidates.length; i++) {\n            if (\n                voter_.stateCode == candidates[i].stateCode &&\n                voter_.constituencyCode == candidates[i].constituencyCode\n            ) _politicianOfMyConstituencyLength++;\n        }\n        Types.Candidate[] memory cc = new Types.Candidate[](\n            _politicianOfMyConstituencyLength\n        );\n\n        uint256 _indx = 0;\n        for (uint256 i = 0; i < candidates.length; i++) {\n            if (\n                voter_.stateCode == candidates[i].stateCode &&\n                voter_.constituencyCode == candidates[i].constituencyCode\n            ) {\n                cc[_indx] = candidates[i];\n                _indx++;\n            }\n        }\n        return cc;\n    }\n\n    /**\n     * @dev Get candidate list.\n     * @param voterAadharNumber Aadhar number of the current voter to send the relevent candidates list\n     * @return voterEligible_ Whether the voter with provided aadhar is eligible or not\n     */\n    function isVoterEligible(uint256 voterAadharNumber)\n        public\n        view\n        returns (bool voterEligible_)\n    {\n        Types.Voter storage voter_ = voter[voterAadharNumber];\n        if (voter_.age >= 18 && voter_.isAlive) voterEligible_ = true;\n    }\n\n    /**\n     * @dev Know whether the voter casted their vote or not. If casted get candidate object.\n     * @param voterAadharNumber Aadhar number of the current voter\n     * @return userVoted_ Boolean value which gives whether current voter casted vote or not\n     * @return candidate_ Candidate details to whom voter casted his/her vote\n     */\n    function didCurrentVoterVoted(uint256 voterAadharNumber)\n        public\n        view\n        returns (bool userVoted_, Types.Candidate memory candidate_)\n    {\n        userVoted_ = (voter[voterAadharNumber].votedTo != 0);\n        if (userVoted_)\n            candidate_ = candidate[voter[voterAadharNumber].votedTo];\n    }\n\n    /**\n     * @dev Give your vote to candidate.\n     * @param nominationNumber Aadhar Number of the candidate\n     * @param voterAadharNumber Aadhar Number of the voter to avoid re-entry\n     * @param currentTime_ To check if the election has started or not\n     */\n    function vote(\n        uint256 nominationNumber,\n        uint256 voterAadharNumber,\n        uint256 currentTime_\n    )\n        public\n        votingLinesAreOpen(currentTime_)\n        isEligibleVote(voterAadharNumber, nominationNumber)\n    {\n        // updating the current voter values\n        voter[voterAadharNumber].votedTo = nominationNumber;\n\n        // updates the votes the politician\n        uint256 voteCount_ = votesCount[nominationNumber];\n        votesCount[nominationNumber] = voteCount_ + 1;\n    }\n\n    /**\n     * @dev Gives ending epoch time of voting\n     * @return endTime_ When the voting ends\n     */\n    function getVotingEndTime() public view returns (uint256 endTime_) {\n        endTime_ = votingEndTime;\n    }\n\n    /**\n     * @dev used to update the voting start & end times\n     * @param startTime_ Start time that needs to be updated\n     * @param currentTime_ Current time that needs to be updated\n     */\n    function updateVotingStartTime(uint256 startTime_, uint256 currentTime_)\n        public\n        isElectionChief\n    {\n        require(votingStartTime > currentTime_);\n        votingStartTime = startTime_;\n    }\n\n    /**\n     * @dev To extend the end of the voting\n     * @param endTime_ End time that needs to be updated\n     * @param currentTime_ Current time that needs to be updated\n     */\n    function extendVotingTime(uint256 endTime_, uint256 currentTime_)\n        public\n        isElectionChief\n    {\n        require(votingStartTime < currentTime_);\n        require(votingEndTime > currentTime_);\n        votingEndTime = endTime_;\n    }\n\n    /**\n     * @dev sends all candidate list with their votes count\n     * @param currentTime_ Current epoch time of length 10.\n     * @return candidateList_ List of Candidate objects with votes count\n     */\n    function getResults(uint256 currentTime_)\n        public\n        view\n        returns (Types.Results[] memory)\n    {\n        require(votingEndTime < currentTime_);\n        Types.Results[] memory resultsList_ = new Types.Results[](\n            candidates.length\n        );\n        for (uint256 i = 0; i < candidates.length; i++) {\n            resultsList_[i] = Types.Results({\n                name: candidates[i].name,\n                partyShortcut: candidates[i].partyShortcut,\n                partyFlag: candidates[i].partyFlag,\n                nominationNumber: candidates[i].nominationNumber,\n                stateCode: candidates[i].stateCode,\n                constituencyCode: candidates[i].constituencyCode,\n                voteCount: votesCount[candidates[i].nominationNumber]\n            });\n        }\n        return resultsList_;\n    }\n\n    /**\n     * @notice To check if the voter's age is greater than or equal to 18\n     * @param currentTime_ Current epoch time of the voter\n     */\n    modifier votingLinesAreOpen(uint256 currentTime_) {\n        require(currentTime_ >= votingStartTime);\n        require(currentTime_ <= votingEndTime);\n        _;\n    }\n\n    /**\n     * @notice To check if the voter's age is greater than or equal to 18\n     * @param voterAadhar_ Aadhar number of the current voter\n     * @param nominationNumber_ Nomination number of the candidate\n     */\n    modifier isEligibleVote(uint256 voterAadhar_, uint256 nominationNumber_) {\n        Types.Voter memory voter_ = voter[voterAadhar_];\n        Types.Candidate memory politician_ = candidate[nominationNumber_];\n        require(voter_.age >= 18);\n        require(voter_.isAlive);\n        require(voter_.votedTo == 0);\n        require(\n            (politician_.stateCode == voter_.stateCode &&\n                politician_.constituencyCode == voter_.constituencyCode)\n        );\n        _;\n    }\n\n    /**\n     * @notice To check if the user is Election Chief or not\n     */\n    modifier isElectionChief() {\n        require(msg.sender == electionChief);\n        _;\n    }\n\n    /**\n     * Dummy data for Candidates\n     * In the future, we can accept the same from construction,\n     * which will be called at the time of deployment\n     */\n    function initializeCandidateDatabase_() internal {\n        Types.Candidate[] memory candidates_ = new Types.Candidate[](14);\n\n        // Andhra Pradesh\n        candidates_[0] = Types.Candidate({\n            name: \"Chandra Babu Naidu\",\n            partyShortcut: \"TDP\",\n            partyFlag: \"https://res.cloudinary.com/dj9ttsbgm/image/upload/v1648101065/tdp_qh1rkj.png\",\n            nominationNumber: uint256(727477314982),\n            stateCode: uint8(10),\n            constituencyCode: uint8(1)\n        });\n        candidates_[1] = Types.Candidate({\n            name: \"Jagan Mohan Reddy\",\n            partyShortcut: \"YSRCP\",\n            partyFlag: \"https://res.cloudinary.com/dj9ttsbgm/image/upload/v1648101065/ysrcp_sas311.png\",\n            nominationNumber: uint256(835343722350),\n            stateCode: uint8(10),\n            constituencyCode: uint8(1)\n        });\n        candidates_[2] = Types.Candidate({\n            name: \"G V Anjaneyulu\",\n            partyShortcut: \"TDP\",\n            partyFlag: \"https://res.cloudinary.com/dj9ttsbgm/image/upload/v1648101065/tdp_qh1rkj.png\",\n            nominationNumber: uint256(969039304119),\n            stateCode: uint8(10),\n            constituencyCode: uint8(2)\n        });\n        candidates_[3] = Types.Candidate({\n            name: \"Anil Kumar Yadav\",\n            partyShortcut: \"YSRCP\",\n            partyFlag: \"https://res.cloudinary.com/dj9ttsbgm/image/upload/v1648101065/ysrcp_sas311.png\",\n            nominationNumber: uint256(429300763874),\n            stateCode: uint8(10),\n            constituencyCode: uint8(2)\n        });\n\n        // Bihar\n        candidates_[4] = Types.Candidate({\n            name: \"Narendra Modi\",\n            partyShortcut: \"BJP\",\n            partyFlag: \"https://res.cloudinary.com/dj9ttsbgm/image/upload/v1648101064/bjp_nk4snw.png\",\n            nominationNumber: uint256(895363124093),\n            stateCode: uint8(11),\n            constituencyCode: uint8(1)\n        });\n        candidates_[5] = Types.Candidate({\n            name: \"Rahul Gandhi\",\n            partyShortcut: \"INC\",\n            partyFlag: \"https://res.cloudinary.com/dj9ttsbgm/image/upload/v1648101064/inc_s1oqn5.png\",\n            nominationNumber: uint256(879824052764),\n            stateCode: uint8(11),\n            constituencyCode: uint8(1)\n        });\n        candidates_[6] = Types.Candidate({\n            name: \"Tejaswi Yadav\",\n            partyShortcut: \"RJD\",\n            partyFlag: \"https://res.cloudinary.com/dj9ttsbgm/image/upload/v1648101065/1200px-RJD_Flag.svg_arrrvt.png\",\n            nominationNumber: uint256(994080299774),\n            stateCode: uint8(11),\n            constituencyCode: uint8(1)\n        });\n        candidates_[7] = Types.Candidate({\n            name: \"Arvind Kejriwal\",\n            partyShortcut: \"AAP\",\n            partyFlag: \"https://res.cloudinary.com/dj9ttsbgm/image/upload/v1648101065/aap_ujguyl.png\",\n            nominationNumber: uint256(807033055701),\n            stateCode: uint8(11),\n            constituencyCode: uint8(1)\n        });\n        candidates_[8] = Types.Candidate({\n            name: \"Jyoti Basu\",\n            partyShortcut: \"CPIM\",\n            partyFlag: \"https://res.cloudinary.com/dj9ttsbgm/image/upload/v1648101064/1024px-Cpim_party_symbol.svg_mu1gpp.png\",\n            nominationNumber: uint256(615325500020),\n            stateCode: uint8(11),\n            constituencyCode: uint8(1)\n        });\n        candidates_[9] = Types.Candidate({\n            name: \"Amit Shah\",\n            partyShortcut: \"BJP\",\n            partyFlag: \"https://res.cloudinary.com/dj9ttsbgm/image/upload/v1648101064/bjp_nk4snw.png\",\n            nominationNumber: uint256(611996864962),\n            stateCode: uint8(11),\n            constituencyCode: uint8(2)\n        });\n        candidates_[10] = Types.Candidate({\n            name: \"Priyanka Gandhi\",\n            partyShortcut: \"INC\",\n            partyFlag: \"https://res.cloudinary.com/dj9ttsbgm/image/upload/v1648101064/inc_s1oqn5.png\",\n            nominationNumber: uint256(866627241136),\n            stateCode: uint8(11),\n            constituencyCode: uint8(2)\n        });\n        candidates_[11] = Types.Candidate({\n            name: \"Lalu Yadav\",\n            partyShortcut: \"RJD\",\n            partyFlag: \"https://res.cloudinary.com/dj9ttsbgm/image/upload/v1648101065/1200px-RJD_Flag.svg_arrrvt.png\",\n            nominationNumber: uint256(765724506305),\n            stateCode: uint8(11),\n            constituencyCode: uint8(2)\n        });\n        candidates_[12] = Types.Candidate({\n            name: \"Manish Sisodia\",\n            partyShortcut: \"AAP\",\n            partyFlag: \"https://res.cloudinary.com/dj9ttsbgm/image/upload/v1648101065/aap_ujguyl.png\",\n            nominationNumber: uint256(897855877716),\n            stateCode: uint8(11),\n            constituencyCode: uint8(2)\n        });\n        candidates_[13] = Types.Candidate({\n            name: \"Prakash Karat\",\n            partyShortcut: \"CPIM\",\n            partyFlag: \"https://res.cloudinary.com/dj9ttsbgm/image/upload/v1648101064/1024px-Cpim_party_symbol.svg_mu1gpp.png\",\n            nominationNumber: uint256(463774295590),\n            stateCode: uint8(11),\n            constituencyCode: uint8(2)\n        });\n\n        for (uint256 i = 0; i < candidates_.length; i++) {\n            candidate[candidates_[i].nominationNumber] = candidates_[i];\n            candidates.push(candidates_[i]);\n        }\n    }\n\n    /**\n     * Dummy data for Aadhar users\n     * In the future, we can have a an external API cal to centralized aadhar DB\n     * https://ethereum.stackexchange.com/a/334\n     * https://docs.chain.link/docs/make-a-http-get-request/\n     */\n    function initializeVoterDatabase_() internal {\n        // Andhra Pradesh\n        voter[uint256(482253918244)] = Types.Voter({\n            name: \"Suresh\",\n            aadharNumber: uint256(482253918244),\n            age: uint8(21),\n            stateCode: uint8(10),\n            constituencyCode: uint8(1),\n            isAlive: true,\n            votedTo: uint256(0)\n        });\n        voter[uint256(532122269467)] = Types.Voter({\n            name: \"Ramesh\",\n            aadharNumber: uint256(532122269467),\n            age: uint8(37),\n            stateCode: uint8(10),\n            constituencyCode: uint8(1),\n            isAlive: false,\n            votedTo: uint256(0)\n        });\n        voter[uint256(468065932286)] = Types.Voter({\n            name: \"Mahesh\",\n            aadharNumber: uint256(468065932286),\n            age: uint8(26),\n            stateCode: uint8(10),\n            constituencyCode: uint8(1),\n            isAlive: true,\n            votedTo: uint256(0)\n        });\n        voter[uint256(809961147437)] = Types.Voter({\n            name: \"Krishna\",\n            aadharNumber: uint256(809961147437),\n            age: uint8(19),\n            stateCode: uint8(10),\n            constituencyCode: uint8(2),\n            isAlive: true,\n            votedTo: uint256(0)\n        });\n        voter[uint256(908623597782)] = Types.Voter({\n            name: \"Narendra\",\n            aadharNumber: uint256(908623597782),\n            age: uint8(36),\n            stateCode: uint8(10),\n            constituencyCode: uint8(2),\n            isAlive: true,\n            votedTo: uint256(0)\n        });\n        voter[uint256(760344621247)] = Types.Voter({\n            name: \"Raghu\",\n            aadharNumber: uint256(760344621247),\n            age: uint8(42),\n            stateCode: uint8(10),\n            constituencyCode: uint8(2),\n            isAlive: true,\n            votedTo: uint256(0)\n        });\n        // Bihar\n        voter[uint256(908704156902)] = Types.Voter({\n            name: \"Pushkar Kumar\",\n            aadharNumber: uint256(908704156902),\n            age: uint8(25),\n            stateCode: uint8(11),\n            constituencyCode: uint8(1),\n            isAlive: true,\n            votedTo: uint256(0)\n        });\n        voter[uint256(778925466180)] = Types.Voter({\n            name: \"Kunal Kumar\",\n            aadharNumber: uint256(778925466180),\n            age: uint8(37),\n            stateCode: uint8(11),\n            constituencyCode: uint8(1),\n            isAlive: true,\n            votedTo: uint256(0)\n        });\n        voter[uint256(393071790055)] = Types.Voter({\n            name: \"Kumar Sanket\",\n            aadharNumber: uint256(393071790055),\n            age: uint8(29),\n            stateCode: uint8(11),\n            constituencyCode: uint8(2),\n            isAlive: true,\n            votedTo: uint256(0)\n        });\n        voter[uint256(983881786161)] = Types.Voter({\n            name: \"Pratik\",\n            aadharNumber: uint256(983881786161),\n            age: uint8(40),\n            stateCode: uint8(11),\n            constituencyCode: uint8(2),\n            isAlive: true,\n            votedTo: uint256(0)\n        });\n        voter[uint256(756623869645)] = Types.Voter({\n            name: \"Aausi\",\n            aadharNumber: uint256(756623869645),\n            age: uint8(85),\n            stateCode: uint8(11),\n            constituencyCode: uint8(1),\n            isAlive: false,\n            votedTo: uint256(0)\n        });\n        voter[uint256(588109459505)] = Types.Voter({\n            name: \"Pratiba\",\n            aadharNumber: uint256(588109459505),\n            age: uint8(68),\n            stateCode: uint8(11),\n            constituencyCode: uint8(2),\n            isAlive: false,\n            votedTo: uint256(0)\n        });\n        // West Bengal\n        voter[uint256(967746320661)] = Types.Voter({\n            name: \"Ruchika\",\n            aadharNumber: uint256(967746320661),\n            age: uint8(26),\n            stateCode: uint8(11),\n            constituencyCode: uint8(1),\n            isAlive: true,\n            votedTo: uint256(0)\n        });\n        voter[uint256(727938171119)] = Types.Voter({\n            name: \"Rambabu\",\n            aadharNumber: uint256(727938171119),\n            age: uint8(17),\n            stateCode: uint8(11),\n            constituencyCode: uint8(1),\n            isAlive: true,\n            votedTo: uint256(0)\n        });\n        voter[uint256(609015917688)] = Types.Voter({\n            name: \"Matajii\",\n            aadharNumber: uint256(609015917688),\n            age: uint8(98),\n            stateCode: uint8(11),\n            constituencyCode: uint8(1),\n            isAlive: true,\n            votedTo: uint256(0)\n        });\n        voter[uint256(620107691388)] = Types.Voter({\n            name: \"Mamata\",\n            aadharNumber: uint256(620107691388),\n            age: uint8(63),\n            stateCode: uint8(11),\n            constituencyCode: uint8(2),\n            isAlive: false,\n            votedTo: uint256(0)\n        });\n        voter[uint256(403561319377)] = Types.Voter({\n            name: \"Ravi Varma\",\n            aadharNumber: uint256(403561319377),\n            age: uint8(42),\n            stateCode: uint8(11),\n            constituencyCode: uint8(2),\n            isAlive: true,\n            votedTo: uint256(0)\n        });\n        voter[uint256(837970229674)] = Types.Voter({\n            name: \"Rahul\",\n            aadharNumber: uint256(837970229674),\n            age: uint8(56),\n            stateCode: uint8(11),\n            constituencyCode: uint8(2),\n            isAlive: true,\n            votedTo: uint256(0)\n        });\n    }\n}\n",
  "sourcePath": "/Users/sureshkonakanchi/Desktop/sample-e-voting-system-ethereum/blockchain/contracts/Ballot.sol",
  "compiler": {
    "name": "solc",
    "version": "0.8.13+commit.abaa5c0e.Emscripten.clang"
  },
  "schemaVersion": "3.4.6",
  "updatedAt": "2022-04-13T08:58:31.358Z",
  "devdoc": {
    "author": "Suresh Konakanchi",
    "details": "Implements voting process along with winning candidate",
    "kind": "dev",
    "methods": {
      "constructor": {
        "details": "Create a new ballot to choose one of 'candidateNames'",
        "params": {
          "endTime_": "When the voting process will end",
          "startTime_": "When the voting process will start"
        }
      },
      "didCurrentVoterVoted(uint256)": {
        "details": "Know whether the voter casted their vote or not. If casted get candidate object.",
        "params": {
          "voterAadharNumber": "Aadhar number of the current voter"
        },
        "returns": {
          "candidate_": "Candidate details to whom voter casted his/her vote",
          "userVoted_": "Boolean value which gives whether current voter casted vote or not"
        }
      },
      "extendVotingTime(uint256,uint256)": {
        "details": "To extend the end of the voting",
        "params": {
          "currentTime_": "Current time that needs to be updated",
          "endTime_": "End time that needs to be updated"
        }
      },
      "getCandidateList(uint256)": {
        "details": "Get candidate list.",
        "params": {
          "voterAadharNumber": "Aadhar number of the current voter to send the relevent candidates list"
        },
        "returns": {
          "_0": "candidatesList_ All the politicians who participate in the election"
        }
      },
      "getResults(uint256)": {
        "details": "sends all candidate list with their votes count",
        "params": {
          "currentTime_": "Current epoch time of length 10."
        },
        "returns": {
          "_0": "candidateList_ List of Candidate objects with votes count"
        }
      },
      "getVotingEndTime()": {
        "details": "Gives ending epoch time of voting",
        "returns": {
          "endTime_": "When the voting ends"
        }
      },
      "isVoterEligible(uint256)": {
        "details": "Get candidate list.",
        "params": {
          "voterAadharNumber": "Aadhar number of the current voter to send the relevent candidates list"
        },
        "returns": {
          "voterEligible_": "Whether the voter with provided aadhar is eligible or not"
        }
      },
      "updateVotingStartTime(uint256,uint256)": {
        "details": "used to update the voting start & end times",
        "params": {
          "currentTime_": "Current time that needs to be updated",
          "startTime_": "Start time that needs to be updated"
        }
      },
      "vote(uint256,uint256,uint256)": {
        "details": "Give your vote to candidate.",
        "params": {
          "currentTime_": "To check if the election has started or not",
          "nominationNumber": "Aadhar Number of the candidate",
          "voterAadharNumber": "Aadhar Number of the voter to avoid re-entry"
        }
      }
    },
    "title": "Ballot",
    "version": 1
  },
  "userdoc": {
    "kind": "user",
    "methods": {},
    "version": 1
  }
}