{
  "contractName": "Ballot",
  "abi": [
    {
      "inputs": [
        {
          "components": [
            {
              "internalType": "string",
              "name": "name",
              "type": "string"
            },
            {
              "internalType": "string",
              "name": "partyShortcut",
              "type": "string"
            },
            {
              "internalType": "string",
              "name": "partyFlag",
              "type": "string"
            },
            {
              "internalType": "uint256",
              "name": "voteCount",
              "type": "uint256"
            },
            {
              "internalType": "uint256",
              "name": "aadharNumber",
              "type": "uint256"
            },
            {
              "internalType": "uint8",
              "name": "stateCode",
              "type": "uint8"
            },
            {
              "internalType": "uint8",
              "name": "constituencyCode",
              "type": "uint8"
            }
          ],
          "internalType": "struct Ballot.Candidate[]",
          "name": "candidates_",
          "type": "tuple[]"
        },
        {
          "internalType": "uint256",
          "name": "startTimeInUTC_",
          "type": "uint256"
        },
        {
          "internalType": "uint256",
          "name": "endTimeInUTC_",
          "type": "uint256"
        }
      ],
      "payable": false,
      "stateMutability": "nonpayable",
      "type": "constructor"
    },
    {
      "constant": true,
      "inputs": [
        {
          "internalType": "uint256",
          "name": "voterAadharNumber",
          "type": "uint256"
        }
      ],
      "name": "getCandidateList",
      "outputs": [
        {
          "components": [
            {
              "internalType": "string",
              "name": "name",
              "type": "string"
            },
            {
              "internalType": "string",
              "name": "partyShortcut",
              "type": "string"
            },
            {
              "internalType": "string",
              "name": "partyFlag",
              "type": "string"
            },
            {
              "internalType": "uint256",
              "name": "voteCount",
              "type": "uint256"
            },
            {
              "internalType": "uint256",
              "name": "aadharNumber",
              "type": "uint256"
            },
            {
              "internalType": "uint8",
              "name": "stateCode",
              "type": "uint8"
            },
            {
              "internalType": "uint8",
              "name": "constituencyCode",
              "type": "uint8"
            }
          ],
          "internalType": "struct Ballot.Candidate[]",
          "name": "",
          "type": "tuple[]"
        }
      ],
      "payable": false,
      "stateMutability": "view",
      "type": "function"
    },
    {
      "constant": true,
      "inputs": [
        {
          "internalType": "uint256",
          "name": "voterAadharNumber",
          "type": "uint256"
        }
      ],
      "name": "isVoterEligible",
      "outputs": [
        {
          "internalType": "bool",
          "name": "voterEligible_",
          "type": "bool"
        }
      ],
      "payable": false,
      "stateMutability": "view",
      "type": "function"
    },
    {
      "constant": true,
      "inputs": [
        {
          "internalType": "uint256",
          "name": "voterAadharNumber",
          "type": "uint256"
        }
      ],
      "name": "didCurrentVoterVoted",
      "outputs": [
        {
          "internalType": "bool",
          "name": "userVoted_",
          "type": "bool"
        },
        {
          "components": [
            {
              "internalType": "string",
              "name": "name",
              "type": "string"
            },
            {
              "internalType": "string",
              "name": "partyShortcut",
              "type": "string"
            },
            {
              "internalType": "string",
              "name": "partyFlag",
              "type": "string"
            },
            {
              "internalType": "uint256",
              "name": "voteCount",
              "type": "uint256"
            },
            {
              "internalType": "uint256",
              "name": "aadharNumber",
              "type": "uint256"
            },
            {
              "internalType": "uint8",
              "name": "stateCode",
              "type": "uint8"
            },
            {
              "internalType": "uint8",
              "name": "constituencyCode",
              "type": "uint8"
            }
          ],
          "internalType": "struct Ballot.Candidate",
          "name": "candidate_",
          "type": "tuple"
        }
      ],
      "payable": false,
      "stateMutability": "view",
      "type": "function"
    },
    {
      "constant": false,
      "inputs": [
        {
          "internalType": "uint256",
          "name": "candidateAadharNumber",
          "type": "uint256"
        },
        {
          "internalType": "uint256",
          "name": "voterAadharNumber",
          "type": "uint256"
        },
        {
          "internalType": "uint256",
          "name": "currentTimeInUTC_",
          "type": "uint256"
        }
      ],
      "name": "vote",
      "outputs": [],
      "payable": false,
      "stateMutability": "nonpayable",
      "type": "function"
    },
    {
      "constant": true,
      "inputs": [],
      "name": "getVotingEndTime",
      "outputs": [
        {
          "internalType": "uint256",
          "name": "endTimeInUTC_",
          "type": "uint256"
        }
      ],
      "payable": false,
      "stateMutability": "view",
      "type": "function"
    },
    {
      "constant": false,
      "inputs": [
        {
          "internalType": "uint256",
          "name": "startTime_",
          "type": "uint256"
        },
        {
          "internalType": "uint256",
          "name": "endTime_",
          "type": "uint256"
        }
      ],
      "name": "startVoting",
      "outputs": [],
      "payable": false,
      "stateMutability": "nonpayable",
      "type": "function"
    },
    {
      "constant": false,
      "inputs": [
        {
          "internalType": "uint256",
          "name": "endTime_",
          "type": "uint256"
        }
      ],
      "name": "extendVotingTime",
      "outputs": [],
      "payable": false,
      "stateMutability": "nonpayable",
      "type": "function"
    },
    {
      "constant": true,
      "inputs": [
        {
          "internalType": "uint256",
          "name": "currentTimeInUTC",
          "type": "uint256"
        }
      ],
      "name": "allCandidatesWithVoteCount",
      "outputs": [
        {
          "components": [
            {
              "internalType": "string",
              "name": "name",
              "type": "string"
            },
            {
              "internalType": "string",
              "name": "partyShortcut",
              "type": "string"
            },
            {
              "internalType": "string",
              "name": "partyFlag",
              "type": "string"
            },
            {
              "internalType": "uint256",
              "name": "voteCount",
              "type": "uint256"
            },
            {
              "internalType": "uint256",
              "name": "aadharNumber",
              "type": "uint256"
            },
            {
              "internalType": "uint8",
              "name": "stateCode",
              "type": "uint8"
            },
            {
              "internalType": "uint8",
              "name": "constituencyCode",
              "type": "uint8"
            }
          ],
          "internalType": "struct Ballot.Candidate[]",
          "name": "",
          "type": "tuple[]"
        }
      ],
      "payable": false,
      "stateMutability": "view",
      "type": "function"
    }
  ],
  "bytecode": "0x60806040523480156200001157600080fd5b5060405162002ebd38038062002ebd833981016040819052620000349162001dbe565b620000476001600160e01b036200023f16565b60038290556004819055600580546001600160a01b0319163317905560005b835181101562000235576200007a62001ae7565b8482815181106200008757fe5b602002602001015190508060026000878581518110620000a357fe5b60200260200101516080015181526020019081526020016000206000820151816000019080519060200190620000db92919062001b2a565b506020828101518051620000f6926001850192019062001b2a565b50604082015180516200011491600284019160209091019062001b2a565b50606082015160038201556080820151600482015560a08201516005909101805460c09093015160ff9081166101000261ff00199190931660ff19909416939093179290921617905560008054600181018083559180528251805184926006027f290decd9548b62a8d60345a988386fc84ba6bc95484008f6362f93160ef3e5630191620001a89183916020019062001b2a565b506020828101518051620001c3926001850192019062001b2a565b5060408201518051620001e191600284019160209091019062001b2a565b50606082015160038201556080820151600482015560a08201516005909101805460c09093015160ff9081166101000261ff00199190931660ff199094169390931792909216179055505060010162000066565b5050505062001ef7565b604080516101008101825264704892d0248082528251808401845260068152650a6eae4cae6d60d31b602082810191909152808401918252601594840194909452600a606084015260016080840181905260a08401819052600060c0850181905260e085018190529290925290835281517fa7a766775a1cc834fc59ee5e38e7a27c550be59c7dbd2dc8ec140f4b1f46677990815590518051929391926200030b927fa7a766775a1cc834fc59ee5e38e7a27c550be59c7dbd2dc8ec140f4b1f46677a92019062001b2a565b5060408281015160028301805460608087015160808089015160a0808b015160c0808d015160ff1990981660ff9a8b161761ff001916610100968b1687021762ff00001916620100009a909416999099029290921763ff00000019166301000000921515929092029190911760ff60201b1916640100000000951515959095029490941790945560e09788015160039097019690965584519586018552647be4f5771b8087528551808701875260068152650a4c2dacae6d60d31b602082810191909152808901918252602597890197909752600a928801929092526001938701849052600092870183905293860182905295850181905291909152815281517f232cd2334dd65769e71e2aa2c195cf980876a8eb6ecf2048ca949faf6674a2e19081559251805192939262000465927f232cd2334dd65769e71e2aa2c195cf980876a8eb6ecf2048ca949faf6674a2e292019062001b2a565b5060408281015160028301805460608087015160808089015160a0808b015160c0808d015160ff1990981660ff9a8b161761ff001916610100968b1687021762ff00001916620100009a909416999099029290921763ff00000019166301000000921515929092029190911760ff60201b1916640100000000951515959095029490941790945560e09788015160039097019690965584519586018552646cfae753fe80875285518087018752600681526509ac2d0cae6d60d31b602082810191909152808901918252601a97890197909752600a9288019290925260019387018490529186018390526000938601849052958501839052909152815281517f1b3a7021b910de42e48c53ef9e4dd9d06e206d1a40f603d5f2b202a2e3c6ee6090815592518051929392620005be927f1b3a7021b910de42e48c53ef9e4dd9d06e206d1a40f603d5f2b202a2e3c6ee6192019062001b2a565b5060408201518160020160006101000a81548160ff021916908360ff16021790555060608201518160020160016101000a81548160ff021916908360ff16021790555060808201518160020160026101000a81548160ff021916908360ff16021790555060a08201518160020160036101000a81548160ff02191690831515021790555060c08201518160020160046101000a81548160ff02191690831515021790555060e0820151816003015590505060405180610100016040528064bc95724c2d8152602001604051806040016040528060078152602001664b726973686e6160c81b8152508152602001601360ff168152602001600a60ff168152602001600260ff16815260200160011515815260200160001515815260200160008152506001600064bc95724c2d81526020019081526020016000206000820151816000015560208201518160010190805190602001906200072092919062001b2a565b5060408201518160020160006101000a81548160ff021916908360ff16021790555060608201518160020160016101000a81548160ff021916908360ff16021790555060808201518160020160026101000a81548160ff021916908360ff16021790555060a08201518160020160036101000a81548160ff02191690831515021790555060c08201518160020160046101000a81548160ff02191690831515021790555060e0820151816003015590505060405180610100016040528064d38e2fd0d68152602001604051806040016040528060088152602001674e6172656e64726160c01b8152508152602001602460ff168152602001600a60ff168152602001600260ff16815260200160011515815260200160001515815260200160008152506001600064d38e2fd0d681526020019081526020016000206000820151816000015560208201518160010190805190602001906200088392919062001b2a565b5060408201518160020160006101000a81548160ff021916908360ff16021790555060608201518160020160016101000a81548160ff021916908360ff16021790555060808201518160020160026101000a81548160ff021916908360ff16021790555060a08201518160020160036101000a81548160ff02191690831515021790555060c08201518160020160046101000a81548160ff02191690831515021790555060e0820151816003015590505060405180610100016040528064b1081230bf815260200160405180604001604052806005815260200164526167687560d81b8152508152602001602a60ff168152602001600a60ff168152602001600260ff16815260200160011515815260200160001515815260200160008152506001600064b1081230bf8152602001908152602001600020600082015181600001556020820151816001019080519060200190620009e392919062001b2a565b5060408281015160028301805460608087015160808089015160a0808b015160c0808d015160ff1990981660ff9a8b161761ff001916610100968b1687021762ff00001916620100009a909416999099029290921763ff00000019166301000000921515929092029190911760ff60201b1916640100000000951515959095029490941790945560e0978801516003909701969096558451958601855264d392fd0ce680875285518087018752600d81526c283ab9b435b0b91025bab6b0b960991b602082810191909152808901918252601997890197909752600b9288019290925260019387018490529186018390526000938601849052958501839052909152815281517fe37e3282cf946d42746d01da27e04c4fe48ad3543cee63ab42de9b0f273c984e9081559251805192939262000b43927fe37e3282cf946d42746d01da27e04c4fe48ad3543cee63ab42de9b0f273c984f92019062001b2a565b5060408281015160028301805460608087015160808089015160a0808b015160c0808d015160ff1990981660ff9a8b161761ff001916610100968b1687021762ff00001916620100009a909416999099029290921763ff00000019166301000000921515929092029190911760ff60201b1916640100000000951515959095029490941790945560e0978801516003909701969096558451958601855264b55b93624480875285518087018752600b8082526a25bab730b61025bab6b0b960a91b602083810191909152808a019283526025988a01989098529288019290925260019387018490529186018390526000938601849052958501839052909152815281517f30d4b24505605762448e86fccc156aa1978eeea8d82899cffd4384c78b10c3ff9081559251805192939262000ca0927f30d4b24505605762448e86fccc156aa1978eeea8d82899cffd4384c78b10c40092019062001b2a565b5060408201518160020160006101000a81548160ff021916908360ff16021790555060608201518160020160016101000a81548160ff021916908360ff16021790555060808201518160020160026101000a81548160ff021916908360ff16021790555060a08201518160020160036101000a81548160ff02191690831515021790555060c08201518160020160046101000a81548160ff02191690831515021790555060e08201518160030155905050604051806101000160405280645b84e787e781526020016040518060400160405280600c81526020016b12dd5b585c8814d85b9ad95d60a21b8152508152602001601d60ff168152602001600b60ff168152602001600260ff168152602001600115158152602001600015158152602001600081525060016000645b84e787e7815260200190815260200160002060008201518160000155602082015181600101908051906020019062000e0792919062001b2a565b5060408201518160020160006101000a81548160ff021916908360ff16021790555060608201518160020160016101000a81548160ff021916908360ff16021790555060808201518160020160026101000a81548160ff021916908360ff16021790555060a08201518160020160036101000a81548160ff02191690831515021790555060c08201518160020160046101000a81548160ff02191690831515021790555060e0820151816003015590505060405180610100016040528064e513eca33181526020016040518060400160405280600681526020016550726174696b60d01b8152508152602001602860ff168152602001600b60ff168152602001600260ff16815260200160011515815260200160001515815260200160008152506001600064e513eca331815260200190815260200160002060008201518160000155602082015181600101908051906020019062000f6892919062001b2a565b5060408281015160028301805460608087015160808089015160a0808b015160c0808d015160ff1990981660ff9a8b161761ff001916610100968b1687021762ff00001916620100009a909416999099029290921763ff00000019166301000000921515929092029190911760ff60201b1916640100000000951515959095029490941790945560e0978801516003909701969096558451958601855264b02a4c06cd808752855180870187526005815264416175736960d81b602082810191909152808901918252605597890197909752600b928801929092526001938701849052600092870183905293860182905295850181905291909152815281517f804168a7ad743abc9352750a537b700b3c0b600d928c4765fb15c795ffe6ee5590815592518051929392620010c1927f804168a7ad743abc9352750a537b700b3c0b600d928c4765fb15c795ffe6ee5692019062001b2a565b5060408201518160020160006101000a81548160ff021916908360ff16021790555060608201518160020160016101000a81548160ff021916908360ff16021790555060808201518160020160026101000a81548160ff021916908360ff16021790555060a08201518160020160036101000a81548160ff02191690831515021790555060c08201518160020160046101000a81548160ff02191690831515021790555060e082015181600301559050506040518061010001604052806488ee0e30318152602001604051806040016040528060078152602001665072617469626160c81b8152508152602001604460ff168152602001600b60ff168152602001600260ff1681526020016001151581526020016000151581526020016000815250600160006488ee0e303181526020019081526020016000206000820151816000015560208201518160010190805190602001906200122392919062001b2a565b5060408281015160028301805460608087015160808089015160a0808b015160c0808d015160ff1990981660ff9a8b161761ff001916610100968b1687021762ff00001916620100009a909416999099029290921763ff00000019166301000000921515929092029190911760ff60201b1916640100000000951515959095029490941790945560e0978801516003909701969096558451958601855264e1522cf91580875285518087018752600781526652756368696b6160c81b602082810191909152808901918252601a97890197909752600c9288019290925260019387018490529186018390526000938601849052958501839052909152815281517f57026994d2ae0eca866a75a551989963e7d4d94050f79a43e945ffe7af06ef2c908155925180519293926200137d927f57026994d2ae0eca866a75a551989963e7d4d94050f79a43e945ffe7af06ef2d92019062001b2a565b5060408281015160028301805460608087015160808089015160a0808b015160c0808d015160ff1990981660ff9a8b161761ff001916610100968b1687021762ff00001916620100009a909416999099029290921763ff00000019166301000000921515929092029190911760ff60201b1916640100000000951515959095029490941790945560e0978801516003909701969096558451958601855264a97c7f00ef80875285518087018752600781526652616d6261627560c81b602082810191909152808901918252603097890197909752600c9288019290925260019387018490529186018390526000938601849052958501839052909152815281517f4d21fa55ebfb6c114e74444f0f357971a8f79e2c19860f008d6086744123968890815592518051929392620014d7927f4d21fa55ebfb6c114e74444f0f357971a8f79e2c19860f008d6086744123968992019062001b2a565b5060408281015160028301805460608087015160808089015160a0808b015160c0808d015160ff1990981660ff9a8b161761ff001916610100968b1687021762ff00001916620100009a909416999099029290921763ff00000019166301000000921515929092029190911760ff60201b1916640100000000951515959095029490941790945560e09788015160039097019690965584519586018552648dcc2d6c788087528551808701875260078152664d6174616a696960c81b602082810191909152808901918252606297890197909752600c9288019290925260019387018490529186018390526000938601849052958501839052909152815281517f175640b7317f48c1fe13b4943aa8db51ed910f24b59c7c7a87df1162869c41299081559251805192939262001631927f175640b7317f48c1fe13b4943aa8db51ed910f24b59c7c7a87df1162869c412a92019062001b2a565b5060408201518160020160006101000a81548160ff021916908360ff16021790555060608201518160020160016101000a81548160ff021916908360ff16021790555060808201518160020160026101000a81548160ff021916908360ff16021790555060a08201518160020160036101000a81548160ff02191690831515021790555060c08201518160020160046101000a81548160ff02191690831515021790555060e082015181600301559050506040518061010001604052806490614c757c8152602001604051806040016040528060068152602001654d616d61746160d01b8152508152602001603f60ff168152602001600c60ff168152602001600260ff1681526020016000151581526020016000151581526020016000815250600160006490614c757c81526020019081526020016000206000820151816000015560208201518160010190805190602001906200179292919062001b2a565b5060408201518160020160006101000a81548160ff021916908360ff16021790555060608201518160020160016101000a81548160ff021916908360ff16021790555060808201518160020160026101000a81548160ff021916908360ff16021790555060a08201518160020160036101000a81548160ff02191690831515021790555060c08201518160020160046101000a81548160ff02191690831515021790555060e08201518160030155905050604051806101000160405280645df6210bd181526020016040518060400160405280600a81526020016952617669205661726d6160b01b8152508152602001602a60ff168152602001600c60ff168152602001600260ff168152602001600115158152602001600015158152602001600081525060016000645df6210bd18152602001908152602001600020600082015181600001556020820151816001019080519060200190620018f792919062001b2a565b5060408201518160020160006101000a81548160ff021916908360ff16021790555060608201518160020160016101000a81548160ff021916908360ff16021790555060808201518160020160026101000a81548160ff021916908360ff16021790555060a08201518160020160036101000a81548160ff02191690831515021790555060c08201518160020160046101000a81548160ff02191690831515021790555060e0820151816003015590505060405180610100016040528064c31aeaf9aa81526020016040518060400160405280600581526020016414985a1d5b60da1b8152508152602001603860ff168152602001600c60ff168152602001600260ff16815260200160011515815260200160001515815260200160008152506001600064c31aeaf9aa815260200190815260200160002060008201518160000155602082015181600101908051906020019062001a5792919062001b2a565b5060408201516002820180546060850151608086015160a087015160c088015115156401000000000260ff60201b1991151563010000000263ff0000001960ff948516620100000262ff0000199686166101000261ff001996909a1660ff19909816979097179490941697909717939093169390931716939093171691909117905560e090910151600390910155565b6040518060e001604052806060815260200160608152602001606081526020016000815260200160008152602001600060ff168152602001600060ff1681525090565b828054600181600116156101000203166002900490600052602060002090601f016020900481019282601f1062001b6d57805160ff191683800117855562001b9d565b8280016001018555821562001b9d579182015b8281111562001b9d57825182559160200191906001019062001b80565b5062001bab92915062001baf565b5090565b62001bcc91905b8082111562001bab576000815560010162001bb6565b90565b600082601f83011262001be157600080fd5b815162001bf862001bf28262001e50565b62001e29565b81815260209384019390925082018360005b8381101562001c3a578151860162001c23888262001c9a565b845250602092830192919091019060010162001c0a565b5050505092915050565b600082601f83011262001c5657600080fd5b815162001c6762001bf28262001e71565b9150808252602083016020830185838301111562001c8457600080fd5b62001c9183828462001e9f565b50505092915050565b600060e0828403121562001cad57600080fd5b62001cb960e062001e29565b82519091506001600160401b0381111562001cd357600080fd5b62001ce18482850162001c44565b82525060208201516001600160401b0381111562001cfe57600080fd5b62001d0c8482850162001c44565b60208301525060408201516001600160401b0381111562001d2c57600080fd5b62001d3a8482850162001c44565b604083015250606062001d508482850162001d9e565b606083015250608062001d668482850162001d9e565b60808301525060a062001d7c8482850162001db1565b60a08301525060c062001d928482850162001db1565b60c08301525092915050565b805162001dab8162001ed2565b92915050565b805162001dab8162001eec565b60008060006060848603121562001dd457600080fd5b83516001600160401b0381111562001deb57600080fd5b62001df98682870162001bcf565b935050602062001e0c8682870162001d9e565b925050604062001e1f8682870162001d9e565b9150509250925092565b6040518181016001600160401b038111828210171562001e4857600080fd5b604052919050565b60006001600160401b0382111562001e6757600080fd5b5060209081020190565b60006001600160401b0382111562001e8857600080fd5b506020601f91909101601f19160190565b60ff1690565b60005b8381101562001ebc57818101518382015260200162001ea2565b8381111562001ecc576000848401525b50505050565b62001edd8162001bcc565b811462001ee957600080fd5b50565b62001edd8162001e99565b610fb68062001f076000396000f3fe608060405234801561001057600080fd5b50600436106100885760003560e01c806390fe56091161005b57806390fe5609146100ff5780639d7ab6e214610112578063b1bf87b014610125578063dce8d8a31461013a57610088565b80630c05dcc51461008d5780635e23c37c146100b6578063618bde0a146100d75780638a6655d6146100ea575b600080fd5b6100a061009b366004610c8b565b61015a565b6040516100ad9190610eb4565b60405180910390f35b6100c96100c4366004610c8b565b6103c0565b6040516100ad929190610ed3565b6100a06100e5366004610c8b565b610607565b6100fd6100f8366004610ceb565b610a47565b005b6100fd61010d366004610cb1565b610bb0565b6100fd610120366004610c8b565b610bd2565b61012d610bee565b6040516100ad9190610ef3565b61014d610148366004610c8b565b610bf4565b6040516100ad9190610ec5565b6060816004541061016a57600080fd5b6000805480602002602001604051908101604052809291908181526020016000905b828210156103b557600084815260209081902060408051600686029092018054600260018216156101009081026000190190921604601f81018690049095028401810190925260e08301848152929390928492909184918401828280156102345780601f1061020957610100808354040283529160200191610234565b820191906000526020600020905b81548152906001019060200180831161021757829003601f168201915b50505050508152602001600182018054600181600116156101000203166002900480601f0160208091040260200160405190810160405280929190818152602001828054600181600116156101000203166002900480156102d65780601f106102ab576101008083540402835291602001916102d6565b820191906000526020600020905b8154815290600101906020018083116102b957829003601f168201915b5050509183525050600282810180546040805160206001841615610100026000190190931694909404601f810183900483028501830190915280845293810193908301828280156103685780601f1061033d57610100808354040283529160200191610368565b820191906000526020600020905b81548152906001019060200180831161034b57829003601f168201915b505050918352505060038201546020808301919091526004830154604083015260059092015460ff808216606084015261010090910416608090910152908252600192909201910161018c565b505050509050919050565b60006103ca610c37565b60008381526001602052604090206002810154640100000000900460ff16925082156106015760038101546000908152600260208181526040928390208351815460018116156101009081026000190190911694909404601f81018490049093028101840190945260e08401828152909392839285918401828280156104915780601f1061046657610100808354040283529160200191610491565b820191906000526020600020905b81548152906001019060200180831161047457829003601f168201915b50505050508152602001826001018054600181600116156101000203166002900480601f0160208091040260200160405190810160405280929190818152602001828054600181600116156101000203166002900480156105335780601f1061050857610100808354040283529160200191610533565b820191906000526020600020905b81548152906001019060200180831161051657829003601f168201915b5050509183525050600283810180546040805160206001841615610100026000190190931694909404601f810183900483028501830190915280845293810193908301828280156105c55780601f1061059a576101008083540402835291602001916105c5565b820191906000526020600020905b8154815290600101906020018083116105a857829003601f168201915b5050509183525050600060208201526004830154604082015260059092015460ff80821660608501526101009091041660809092019190915291505b50915091565b6000818152600160205260408120606091805b6000548110156106ac576000818154811061063157fe5b60009182526020909120600560069092020101546002840154610100900460ff908116911614801561069857506000818154811061066b57fe5b6000918252602090912060056006909202010154600284015462010000900460ff90811661010090920416145b156106a4576001909101905b60010161061a565b506060816040519080825280602002602001820160405280156106e957816020015b6106d6610c37565b8152602001906001900390816106ce5790505b5090506000805b600054811015610a3c576000818154811061070757fe5b60009182526020909120600560069092020101546002860154610100900460ff908116911614801561076e57506000818154811061074157fe5b6000918252602090912060056006909202010154600286015462010000900460ff90811661010090920416145b15610a34576040518060e001604052806000838154811061078b57fe5b6000918252602091829020600690910201805460408051601f600260001961010060018716150201909416939093049283018590048502810185019091528181529283018282801561081e5780601f106107f35761010080835404028352916020019161081e565b820191906000526020600020905b81548152906001019060200180831161080157829003601f168201915b505050505081526020016000838154811061083557fe5b90600052602060002090600602016001018054600181600116156101000203166002900480601f0160208091040260200160405190810160405280929190818152602001828054600181600116156101000203166002900480156108da5780601f106108af576101008083540402835291602001916108da565b820191906000526020600020905b8154815290600101906020018083116108bd57829003601f168201915b50505050508152602001600083815481106108f157fe5b600091825260209182902060026006909202018101805460408051601f6000196101006001861615020190931694909404918201859004850284018501905280835291929091908301828280156109895780601f1061095e57610100808354040283529160200191610989565b820191906000526020600020905b81548152906001019060200180831161096c57829003601f168201915b5050505050815260200160008152602001600083815481106109a757fe5b9060005260206000209060060201600401548152602001600083815481106109cb57fe5b600091825260208083206005600690930201919091015460ff1683528154920191849081106109f657fe5b6000918252602090912060069091020160050154610100900460ff1690528351849084908110610a2257fe5b60209081029190910101526001909101905b6001016106f0565b509095945050505050565b80600354811015610a5757600080fd5b600454811115610a6657600080fd5b6000838152600160209081526040808320878452600292839052922090820154859287929091601260ff9091161015610a9e57600080fd5b60028201546301000000900460ff16610ab657600080fd5b6002820154640100000000900460ff1615610ad057600080fd5b6002820154600582015460ff90811661010090920416148015610b0c575060028201546005820154610100900460ff9081166201000090920416145b610b1557600080fd5b600087815260016020526040812060028101805464ff0000000019166401000000001790556003018990555b600054811015610ba5578860008281548110610b5957fe5b9060005260206000209060060201600401541415610b9d5760008181548110610b7e57fe5b6000918252602090912060036006909202010180546001019055610ba5565b600101610b41565b505050505050505050565b6005546001600160a01b03163314610bc757600080fd5b600391909155600455565b6005546001600160a01b03163314610be957600080fd5b600455565b60045490565b60008181526001602052604081206002810154601260ff90911610801590610c27575060028101546301000000900460ff165b15610c3157600191505b50919050565b6040518060e001604052806060815260200160608152602001606081526020016000815260200160008152602001600060ff168152602001600060ff1681525090565b8035610c8581610f5c565b92915050565b600060208284031215610c9d57600080fd5b6000610ca98484610c7a565b949350505050565b60008060408385031215610cc457600080fd5b6000610cd08585610c7a565b9250506020610ce185828601610c7a565b9150509250929050565b600080600060608486031215610d0057600080fd5b6000610d0c8686610c7a565b9350506020610d1d86828701610c7a565b9250506040610d2e86828701610c7a565b9150509250925092565b6000610d448383610e00565b9392505050565b6000610d5682610f07565b610d608185610f0b565b935083602082028501610d7285610f01565b8060005b85811015610dac5784840389528151610d8f8582610d38565b9450610d9a83610f01565b60209a909a0199925050600101610d76565b5091979650505050505050565b610dc281610f14565b82525050565b6000610dd382610f07565b610ddd8185610f0b565b9350610ded818560208601610f22565b610df681610f52565b9093019392505050565b805160e080845260009190840190610e188282610dc8565b91505060208301518482036020860152610e328282610dc8565b91505060408301518482036040860152610e4c8282610dc8565b9150506060830151610e616060860182610ea2565b506080830151610e746080860182610ea2565b5060a0830151610e8760a0860182610eab565b5060c0830151610e9a60c0860182610eab565b509392505050565b610dc281610f19565b610dc281610f1c565b60208082528101610d448184610d4b565b60208101610c858284610db9565b60408101610ee18285610db9565b8181036020830152610ca98184610e00565b60208101610c858284610ea2565b60200190565b5190565b90815260200190565b151590565b90565b60ff1690565b60005b83811015610f3d578181015183820152602001610f25565b83811115610f4c576000848401525b50505050565b601f01601f191690565b610f6581610f19565b8114610f7057600080fd5b5056fea365627a7a72315820702fbeff45c7d1360725b10ef7440873838e7921d75e709a1b7866dc6ed52f816c6578706572696d656e74616cf564736f6c63430005100040",
  "source": "// SPDX-License-Identifier: GPL-3.0\npragma experimental ABIEncoderV2;\npragma solidity >=0.4.25 <0.9.0;\n\n/**\n * @title Ballot\n * @dev Implements voting process along with winning candidate\n */\ncontract Ballot {\n    struct Voter {\n        uint256 aadharNumber; // voter unique ID\n        string name;\n        uint8 age;\n        uint8 stateCode;\n        uint8 constituencyCode;\n        bool isAlive;\n        bool voted; // if true, that person already voted\n        uint256 votedTo; // aadhar number of the candidate\n    }\n\n    struct Candidate {\n        // Note: If we can limit the length to a certain number of bytes,\n        // we can use one of bytes1 to bytes32 because they are much cheaper\n\n        string name;\n        string partyShortcut;\n        string partyFlag;\n        uint256 voteCount; // number of accumulated votes\n        uint256 aadharNumber; // unique ID of candidate\n        uint8 stateCode;\n        uint8 constituencyCode;\n    }\n\n    Candidate[] internal candidates;\n    mapping(uint256 => Voter) internal voter;\n    mapping(uint256 => Candidate) internal candidate;\n    uint256 private votingStartTime;\n    uint256 private votingEndTime;\n    address electionCheif;\n\n    /**\n     * @dev Create a new ballot to choose one of 'candidateNames'.\n     * @param candidates_ List of Candidates\n     * @param startTimeInUTC_ When the voting process will start\n     * @param endTimeInUTC_ When the voting process will end\n     */\n    constructor(\n        Candidate[] memory candidates_,\n        uint256 startTimeInUTC_,\n        uint256 endTimeInUTC_\n    ) public {\n        initializeVoterDatabase_();\n        votingStartTime = startTimeInUTC_;\n        votingEndTime = endTimeInUTC_;\n        electionCheif = msg.sender;\n        for (uint256 i = 0; i < candidates_.length; i++) {\n            Candidate memory cn_ = candidates_[i];\n            candidate[candidates_[i].aadharNumber] = cn_;\n            candidates.push(cn_);\n        }\n    }\n\n    /**\n     * @dev Get candidate list.\n     * @param voterAadharNumber Aadhar number of the current voter to send the relevent candidates list\n     * @return candidatesList_ All the politicians who participate in the election\n     */\n    function getCandidateList(uint256 voterAadharNumber)\n        public\n        view\n        returns (Candidate[] memory)\n    {\n        Voter storage voter_ = voter[voterAadharNumber];\n        uint256 _politicianOfMyConstituencyLength = 0;\n        for (uint256 i = 0; i < candidates.length; i++) {\n            if (\n                voter_.stateCode == candidates[i].stateCode &&\n                voter_.constituencyCode == candidates[i].constituencyCode\n            ) _politicianOfMyConstituencyLength++;\n        }\n        Candidate[] memory cc = new Candidate[](\n            _politicianOfMyConstituencyLength\n        );\n        uint256 _indx = 0;\n        for (uint256 i = 0; i < candidates.length; i++) {\n            if (\n                voter_.stateCode == candidates[i].stateCode &&\n                voter_.constituencyCode == candidates[i].constituencyCode\n            ) {\n                cc[_indx] = Candidate({\n                    name: candidates[i].name,\n                    partyShortcut: candidates[i].partyShortcut,\n                    partyFlag: candidates[i].partyFlag,\n                    voteCount: 0,\n                    aadharNumber: candidates[i].aadharNumber,\n                    stateCode: candidates[i].stateCode,\n                    constituencyCode: candidates[i].constituencyCode\n                });\n                _indx++;\n            }\n        }\n        return cc;\n    }\n\n    /**\n     * @dev Get candidate list.\n     * @param voterAadharNumber Aadhar number of the current voter to send the relevent candidates list\n     * @return voterEligible_ Whether the voter with provided aadhar is eligible or not\n     */\n    function isVoterEligible(uint256 voterAadharNumber)\n        public\n        view\n        returns (bool voterEligible_)\n    {\n        Voter storage voter_ = voter[voterAadharNumber];\n        if (voter_.age >= 18 && voter_.isAlive) voterEligible_ = true;\n    }\n\n    /**\n     * @dev Know whether the voter casted their vote or not. If casted get candidate object.\n     * @param voterAadharNumber Aadhar number of the current voter\n     * @return userVoted_ Boolean value which gives whether current voter casted vote or not\n     * @return candidate_ Candidate details to whom voter casted his/her vote\n     */\n    function didCurrentVoterVoted(uint256 voterAadharNumber)\n        public\n        view\n        returns (bool userVoted_, Candidate memory candidate_)\n    {\n        Voter storage voter_ = voter[voterAadharNumber];\n        userVoted_ = voter_.voted;\n        if (userVoted_) {\n            Candidate storage politician_ = candidate[voter_.votedTo];\n            candidate_ = Candidate({\n                name: politician_.name,\n                voteCount: 0,\n                aadharNumber: politician_.aadharNumber,\n                partyShortcut: politician_.partyShortcut,\n                partyFlag: politician_.partyFlag,\n                stateCode: politician_.stateCode,\n                constituencyCode: politician_.constituencyCode\n            });\n        }\n    }\n\n    /**\n     * @dev Give your vote to candidate.\n     * @param candidateAadharNumber Aadhar Number of the candidate\n     * @param voterAadharNumber Aadhar Number of the voter to avoid re-entry\n     * @param currentTimeInUTC_ To check if the election has started or not\n     */\n    function vote(\n        uint256 candidateAadharNumber,\n        uint256 voterAadharNumber,\n        uint256 currentTimeInUTC_\n    )\n        public\n        votingLinesAreOpen(currentTimeInUTC_)\n        isEligibleVote(voterAadharNumber, candidateAadharNumber)\n    {\n        // updating the current voter values\n        voter[voterAadharNumber].voted = true;\n        voter[voterAadharNumber].votedTo = candidateAadharNumber;\n\n        // Incrementing the votes to the relevant candidate.\n        for (uint256 i = 0; i < candidates.length; i++) {\n            // we can't iterate via map to find who got most votes,\n            // so it has to be updated in array only\n            if (candidates[i].aadharNumber == candidateAadharNumber) {\n                candidates[i].voteCount++;\n                break;\n            }\n            // Candidate storage politician_ = candidate[candidateAadharNumber];\n            // politician_.voteCount++;\n        }\n    }\n\n    /**\n     * @dev Gives ending epoch time of voting in UTC timezone\n     * @return endTimeInUTC_ When the voting ends\n     */\n    function getVotingEndTime() public view returns (uint256 endTimeInUTC_) {\n        endTimeInUTC_ = votingEndTime;\n    }\n\n    /**\n     * @dev used to update the voting start & end times\n     * @param startTime_ Start time that needs to be updated\n     * @param endTime_ End time that needs to be updated\n     */\n    function startVoting(uint256 startTime_, uint256 endTime_)\n        public\n        isElectionCheif\n    {\n        votingStartTime = startTime_;\n        votingEndTime = endTime_;\n    }\n\n    /**\n     * @dev To extend the end of the voting\n     * @param endTime_ End time that needs to be updated\n     */\n    function extendVotingTime(uint256 endTime_) public isElectionCheif {\n        votingEndTime = endTime_;\n    }\n\n    /**\n     * @dev sends all candidate list with their votes count\n     * @param currentTimeInUTC Send current epoch time of length 10 by cinverting it into UTC timezone.\n     * @return candidateList_ List of Candidate objects\n     */\n    function allCandidatesWithVoteCount(uint256 currentTimeInUTC)\n        public\n        view\n        returns (Candidate[] memory)\n    {\n        // use \"assert\" for internal errors where as required for both internal & external\n        require(votingEndTime < currentTimeInUTC);\n        return candidates;\n    }\n\n    /**\n     * @notice To check if the voter's age is greater than or equal to 18\n     * @param currentTime_ Current epoch time of the voter in UTC timezone\n     */\n    modifier votingLinesAreOpen(uint256 currentTime_) {\n        require(currentTime_ >= votingStartTime);\n        require(currentTime_ <= votingEndTime);\n        _;\n    }\n\n    /**\n     * @notice To check if the voter's age is greater than or equal to 18\n     * @param voterAadhar_ Aadhar number of the current voter\n     * @param candidateAadhar_ Aadhar number of the candidate\n     */\n    modifier isEligibleVote(uint256 voterAadhar_, uint256 candidateAadhar_) {\n        Voter storage voter_ = voter[voterAadhar_];\n        Candidate storage politician_ = candidate[candidateAadhar_];\n        require(voter_.age >= 18);\n        require(voter_.isAlive);\n        require(!voter_.voted);\n        require(\n            (politician_.stateCode == voter_.stateCode &&\n                politician_.constituencyCode == voter_.constituencyCode)\n        );\n        _;\n    }\n\n    /**\n     * @notice To check if the user is Election Cheif or not\n     */\n    modifier isElectionCheif() {\n        require(msg.sender == electionCheif);\n        _;\n    }\n\n    /**\n     * Dummy data for Aadhar users\n     * In the future, we can have a an external API cal to centralized aadhar DB\n     * https://ethereum.stackexchange.com/a/334\n     * https://docs.chain.link/docs/make-a-http-get-request/\n     */\n    function initializeVoterDatabase_() internal {\n        // Andhra Pradesh\n        voter[uint256(482253918244)] = Voter({\n            name: \"Suresh\",\n            aadharNumber: uint256(482253918244),\n            age: uint8(21),\n            stateCode: uint8(10),\n            constituencyCode: uint8(1),\n            isAlive: true,\n            voted: false,\n            votedTo: uint256(0)\n        });\n        voter[uint256(532122269467)] = Voter({\n            name: \"Ramesh\",\n            aadharNumber: uint256(532122269467),\n            age: uint8(37),\n            stateCode: uint8(10),\n            constituencyCode: uint8(1),\n            isAlive: false,\n            voted: false,\n            votedTo: uint256(0)\n        });\n        voter[uint256(468065932286)] = Voter({\n            name: \"Mahesh\",\n            aadharNumber: uint256(468065932286),\n            age: uint8(26),\n            stateCode: uint8(10),\n            constituencyCode: uint8(1),\n            isAlive: true,\n            voted: false,\n            votedTo: uint256(0)\n        });\n        voter[uint256(809961147437)] = Voter({\n            name: \"Krishna\",\n            aadharNumber: uint256(809961147437),\n            age: uint8(19),\n            stateCode: uint8(10),\n            constituencyCode: uint8(2),\n            isAlive: true,\n            voted: false,\n            votedTo: uint256(0)\n        });\n        voter[uint256(908623597782)] = Voter({\n            name: \"Narendra\",\n            aadharNumber: uint256(908623597782),\n            age: uint8(36),\n            stateCode: uint8(10),\n            constituencyCode: uint8(2),\n            isAlive: true,\n            voted: false,\n            votedTo: uint256(0)\n        });\n        voter[uint256(760344621247)] = Voter({\n            name: \"Raghu\",\n            aadharNumber: uint256(760344621247),\n            age: uint8(42),\n            stateCode: uint8(10),\n            constituencyCode: uint8(2),\n            isAlive: true,\n            voted: false,\n            votedTo: uint256(0)\n        });\n        // Bihar\n        voter[uint256(908704156902)] = Voter({\n            name: \"Pushkar Kumar\",\n            aadharNumber: uint256(908704156902),\n            age: uint8(25),\n            stateCode: uint8(11),\n            constituencyCode: uint8(1),\n            isAlive: true,\n            voted: false,\n            votedTo: uint256(0)\n        });\n        voter[uint256(778925466180)] = Voter({\n            name: \"Kunal Kumar\",\n            aadharNumber: uint256(778925466180),\n            age: uint8(37),\n            stateCode: uint8(11),\n            constituencyCode: uint8(1),\n            isAlive: true,\n            voted: false,\n            votedTo: uint256(0)\n        });\n        voter[uint256(393071790055)] = Voter({\n            name: \"Kumar Sanket\",\n            aadharNumber: uint256(393071790055),\n            age: uint8(29),\n            stateCode: uint8(11),\n            constituencyCode: uint8(2),\n            isAlive: true,\n            voted: false,\n            votedTo: uint256(0)\n        });\n        voter[uint256(983881786161)] = Voter({\n            name: \"Pratik\",\n            aadharNumber: uint256(983881786161),\n            age: uint8(40),\n            stateCode: uint8(11),\n            constituencyCode: uint8(2),\n            isAlive: true,\n            voted: false,\n            votedTo: uint256(0)\n        });\n        voter[uint256(756623869645)] = Voter({\n            name: \"Aausi\",\n            aadharNumber: uint256(756623869645),\n            age: uint8(85),\n            stateCode: uint8(11),\n            constituencyCode: uint8(1),\n            isAlive: false,\n            voted: false,\n            votedTo: uint256(0)\n        });\n        voter[uint256(588109459505)] = Voter({\n            name: \"Pratiba\",\n            aadharNumber: uint256(588109459505),\n            age: uint8(68),\n            stateCode: uint8(11),\n            constituencyCode: uint8(2),\n            isAlive: true,\n            voted: false,\n            votedTo: uint256(0)\n        });\n        // West Bengal\n        voter[uint256(967746320661)] = Voter({\n            name: \"Ruchika\",\n            aadharNumber: uint256(967746320661),\n            age: uint8(26),\n            stateCode: uint8(12),\n            constituencyCode: uint8(1),\n            isAlive: true,\n            voted: false,\n            votedTo: uint256(0)\n        });\n        voter[uint256(727938171119)] = Voter({\n            name: \"Rambabu\",\n            aadharNumber: uint256(727938171119),\n            age: uint8(48),\n            stateCode: uint8(12),\n            constituencyCode: uint8(1),\n            isAlive: true,\n            voted: false,\n            votedTo: uint256(0)\n        });\n        voter[uint256(609015917688)] = Voter({\n            name: \"Matajii\",\n            aadharNumber: uint256(609015917688),\n            age: uint8(98),\n            stateCode: uint8(12),\n            constituencyCode: uint8(1),\n            isAlive: true,\n            voted: false,\n            votedTo: uint256(0)\n        });\n        voter[uint256(620107691388)] = Voter({\n            name: \"Mamata\",\n            aadharNumber: uint256(620107691388),\n            age: uint8(63),\n            stateCode: uint8(12),\n            constituencyCode: uint8(2),\n            isAlive: false,\n            voted: false,\n            votedTo: uint256(0)\n        });\n        voter[uint256(403561319377)] = Voter({\n            name: \"Ravi Varma\",\n            aadharNumber: uint256(403561319377),\n            age: uint8(42),\n            stateCode: uint8(12),\n            constituencyCode: uint8(2),\n            isAlive: true,\n            voted: false,\n            votedTo: uint256(0)\n        });\n        voter[uint256(837970229674)] = Voter({\n            name: \"Rahul\",\n            aadharNumber: uint256(837970229674),\n            age: uint8(56),\n            stateCode: uint8(12),\n            constituencyCode: uint8(2),\n            isAlive: true,\n            voted: false,\n            votedTo: uint256(0)\n        });\n    }\n}\n",
  "sourcePath": "/Users/ruchika/Sites/projects/content-fest/E-Voting/blockchain/contracts/Ballot.sol",
  "compiler": {
    "name": "solc",
    "version": "0.5.16+commit.9c3226ce.Emscripten.clang"
  },
  "schemaVersion": "3.2.3",
  "updatedAt": "2022-03-19T11:55:06.939Z",
  "networkType": "ethereum",
  "devdoc": {
    "details": "Implements voting process along with winning candidate",
    "methods": {
      "allCandidatesWithVoteCount(uint256)": {
        "details": "sends all candidate list with their votes count",
        "params": {
          "currentTimeInUTC": "Send current epoch time of length 10 by cinverting it into UTC timezone."
        },
        "return": "candidateList_ List of Candidate objects"
      },
      "constructor": {
        "details": "Create a new ballot to choose one of 'candidateNames'.",
        "params": {
          "candidates_": "List of Candidates",
          "endTimeInUTC_": "When the voting process will end",
          "startTimeInUTC_": "When the voting process will start"
        }
      },
      "didCurrentVoterVoted(uint256)": {
        "details": "Know whether the voter casted their vote or not. If casted get candidate object.",
        "params": {
          "voterAadharNumber": "Aadhar number of the current voter"
        },
        "return": "userVoted_ Boolean value which gives whether current voter casted vote or notcandidate_ Candidate details to whom voter casted his/her vote"
      },
      "extendVotingTime(uint256)": {
        "details": "To extend the end of the voting",
        "params": {
          "endTime_": "End time that needs to be updated"
        }
      },
      "getCandidateList(uint256)": {
        "details": "Get candidate list.",
        "params": {
          "voterAadharNumber": "Aadhar number of the current voter to send the relevent candidates list"
        },
        "return": "candidatesList_ All the politicians who participate in the election"
      },
      "getVotingEndTime()": {
        "details": "Gives ending epoch time of voting in UTC timezone",
        "return": "endTimeInUTC_ When the voting ends"
      },
      "isVoterEligible(uint256)": {
        "details": "Get candidate list.",
        "params": {
          "voterAadharNumber": "Aadhar number of the current voter to send the relevent candidates list"
        },
        "return": "voterEligible_ Whether the voter with provided aadhar is eligible or not"
      },
      "startVoting(uint256,uint256)": {
        "details": "used to update the voting start & end times",
        "params": {
          "endTime_": "End time that needs to be updated",
          "startTime_": "Start time that needs to be updated"
        }
      },
      "vote(uint256,uint256,uint256)": {
        "details": "Give your vote to candidate.",
        "params": {
          "candidateAadharNumber": "Aadhar Number of the candidate",
          "currentTimeInUTC_": "To check if the election has started or not",
          "voterAadharNumber": "Aadhar Number of the voter to avoid re-entry"
        }
      }
    },
    "title": "Ballot"
  },
  "userdoc": {
    "methods": {}
  }
}